:020000040800F2
:10400000FFFF012009D8000891850008938500086A
:10401000E5860008298700086D8700080000000079
:10402000000000000000000000000000996E000881
:10403000B1870008000000002D6F00088D85000882
:104040004DD800084DD800084DD800084DD80008BC
:104050004DD800084DD80008238400083384000898
:10406000438400085384000861840008AD240108DB
:104070004DD80008D12401084DD800084DD80008BB
:10408000B38700084DD800084DD800084DD8000867
:104090004DD800084DD800084DD800087984000894
:1040A0004DD800084DD800084DD800084DD800085C
:1040B0004DD800084DD800084DD80008A1240108AB
:1040C000952401084DD800084DD800084DD80008A7
:1040D0004DD800084DD800084DD800086D2F0108B4
:1040E000F18400084DD800084DD800084DD80008CC
:1040F0004DD80008353101084DD800084DD80008CA
:104100004DD800084DD800084DD800084DD80008FB
:104110004DD800084DD800084DD800087D42010850
:10412000097A01084DD800084DD800084DD800087C
:104130004DD800084DD800084DD800084DD80008CB
:104140004DD800084DD800084DD8000805E50008F6
:104150009D7901084DD80008392E0108352E010837
:10416000C5240108B92401084DD800084DD800081D
:104170004DD800084DD800084DD800084DD800088B
:084180004DD800084DD80008DD
:1041880081F0004102E000BF83F0004330B54FEA00
:1041980041044FEA430594EA050F08BF90EA020F6D
:1041A8001FBF54EA000C55EA020C7FEA645C7FEA00
:1041B800655C00F0E2804FEA5454D4EB5555B8BF23
:1041C8006D420CDD2C4480EA020281EA030382EA94
:1041D800000083EA010180EA020281EA0303362D26
:1041E80088BF30BD11F0004F4FEA01314FF4801CF9
:1041F8004CEA113102D0404261EB410113F0004F0B
:104208004FEA03334CEA133302D0524263EB4303C1
:1042180094EA050F00F0A780A4F10104D5F1200E5F
:104228000DDB02FA0EFC22FA05F2801841F10001BA
:1042380003FA0EF2801843FA05F359410EE0A5F18E
:1042480020050EF1200E012A03FA0EFC28BF4CF0BF
:10425800020C43FA05F3C01851EBE37101F0004575
:1042680007D54FF0000EDCF1000C7EEB00006EEB82
:104278000101B1F5801F1BD3B1F5001F0CD349080C
:104288005FEA30004FEA3C0C04F101044FEA445263
:1042980012F5800F80F09A80BCF1004F08BF5FEAEA
:1042A800500C50F1000041EB045141EA050130BDCA
:1042B8005FEA4C0C404141EB010111F4801FA4F16D
:1042C8000104E9D191F0000F04BF01460020B1FAC2
:1042D80081F308BF2033A3F10B03B3F120020CDAFA
:1042E8000C3208DD02F1140CC2F10C0201FA0CF0D8
:1042F80021FA02F10CE002F11402D8BFC2F1200C3D
:1043080001FA02F120FA0CFCDCBF41EA0C019040F2
:10431800E41AA2BF01EB0451294330BD6FEA04043B
:104328001F3C1CDA0C340EDC04F11404C4F1200226
:1043380020FA04F001FA02F340EA030021FA04F338
:1043480045EA030130BDC4F10C04C4F1200220FA8F
:1043580002F001FA04F340EA0300294630BD21FACD
:1043680004F0294630BD94F0000F83F4801306BF93
:1043780081F480110134013D4EE77FEA645C18BF87
:104388007FEA655C29D094EA050F08BF90EA020F1E
:1043980005D054EA000C04BF1946104630BD91EA16
:1043A800030F1EBF0021002030BD5FEA545C05D119
:1043B8004000494128BF41F0004130BD14F5800458
:1043C8003CBF01F5801130BD01F0004545F0FE41CC
:1043D80041F470014FF0000030BD7FEA645C1ABF01
:1043E800194610467FEA655C1CBF0B46024650EA38
:1043F800013406BF52EA033591EA030F41F4002164
:1044080030BD00BF90F0000F04BF0021704730B5E9
:104418004FF4806404F132044FF000054FF00001BE
:1044280050E700BF90F0000F04BF0021704730B57F
:104438004FF4806404F1320410F0004548BF404254
:104448004FF000013EE700BF42004FEAE2014FEAA9
:1044580031014FEA02701FBF12F07F4393F07F4F84
:1044680081F06051704732F07F4208BF704793F087
:104478007F4F04BF41F40021704730B54FF460749A
:1044880001F0004521F000411CE700BF50EA01029D
:1044980008BF704730B54FF000050AE050EA010246
:1044A80008BF704730B511F0004502D5404261EBB6
:1044B80041014FF4806404F132045FEA915C3FF4F7
:1044C800D8AE4FF003025FEADC0C18BF03325FEA94
:1044D800DC0C18BF033202EBDC02C2F1200300FA45
:1044E80003FC20FA02F001FA03FE40EA0E0021FA6A
:1044F80002F11444BDE600BF70B54FF0FF0C4CF458
:10450800E06C1CEA11541DBF1CEA135594EA0C0F09
:1045180095EA0C0F00F0DEF82C4481EA030621EA44
:104528004C5123EA4C5350EA013518BF52EA03357F
:1045380041F4801143F4801338D0A0FB02CE4FF031
:104548000005E1FB02E506F00042E0FB03E54FF061
:104558000006E1FB03569CF0000F18BF4EF0010E59
:10456800A4F1FF04B6F5007F64F5407404D25FEA55
:104578004E0E6D4146EB060642EAC62141EA555108
:104588004FEAC52040EA5E504FEACE2EB4F1FD0C4A
:1045980088BFBCF5E06F1ED8BEF1004F08BF5FEAC8
:1045A800500E50F1000041EB045170BD06F000467A
:1045B80046EA010140EA020081EA0301B4EB5C0427
:1045C800C2BFD4EB0C0541EA045170BD41F480111F
:1045D8004FF0000E013C00F3AB8014F1360FDEBF44
:1045E800002001F0004170BDC4F10004203C35DA20
:1045F8000C341BDC04F11404C4F1200500FA05F3A3
:1046080020FA04F001FA05F240EA020001F0004243
:1046180021F0004110EBD37021FA04F642EB0601B9
:104628005EEA430E08BF20EAD37070BDC4F10C04E3
:10463800C4F1200500FA04F320FA05F001FA04F2A7
:1046480040EA020001F0004110EBD37041F1000193
:104658005EEA430E08BF20EAD37070BDC4F120059E
:1046680000FA05F24EEA020E20FA04F301FA05F206
:1046780043EA020321FA04F001F0004121FA04F2AE
:1046880020EA020000EBD3705EEA430E08BF20EA7E
:10469800D37070BD94F0000F0FD101F000464000B8
:1046A80041EB010111F4801F08BF013CF7D041EA3A
:1046B800060195F0000F18BF704703F0004652003E
:1046C80043EB030313F4801F08BF013DF7D043EA0F
:1046D8000603704794EA0C0F0CEA135518BF95EAC5
:1046E8000C0F0CD050EA410618BF52EA4306D1D14C
:1046F80081EA030101F000414FF0000070BD50EA6B
:10470800410606BF1046194652EA430619D094EAF4
:104718000C0F02D150EA013613D195EA0C0F05D1DE
:1047280052EA03361CBF104619460AD181EA030132
:1047380001F0004141F0FE4141F470014FF00000EA
:1047480070BD41F0FE4141F4780170BD70B54FF085
:10475800FF0C4CF4E06C1CEA11541DBF1CEA135505
:1047680094EA0C0F95EA0C0F00F0A7F8A4EB0504E7
:1047780081EA030E52EA03354FEA013100F08880DE
:104788004FEA03334FF0805545EA131343EA1263A7
:104798004FEA022245EA111545EA10654FEA00265C
:1047A8000EF000419D4208BF964244F1FD0404F515
:1047B800407402D25B084FEA3202B61A65EB030571
:1047C8005B084FEA32024FF480104FF4002CB6EB2E
:1047D800020E75EB030E22BFB61A754640EA0C00AE
:1047E8005B084FEA3202B6EB020E75EB030E22BFEE
:1047F800B61A754640EA5C005B084FEA3202B6EB2F
:10480800020E75EB030E22BFB61A754640EA9C00ED
:104818005B084FEA3202B6EB020E75EB030E22BFBD
:10482800B61A754640EADC0055EA060E18D04FEA7B
:10483800051545EA16754FEA06164FEAC30343EA1B
:1048480052734FEAC2025FEA1C1CC0D111F4801FE8
:104858000BD141EA00014FF000004FF0004CB6E7E1
:1048680011F4801F04BF01430020B4F1FD0C88BF80
:10487800BCF5E06F3FF6AFAEB5EB030C04BFB6EB8B
:10488800020C5FEA500C50F1000041EB045170BD7E
:104898000EF0004E4EEA113114EB5C04C2BFD4EBAB
:1048A8000C0541EA045170BD41F480114FF0000E2F
:1048B800013C90E645EA060E8DE60CEA135594EAAB
:1048C8000C0F08BF95EA0C0F3FF43BAF94EA0C0FAE
:1048D8000AD150EA01347FF434AF95EA0C0F7FF423
:1048E80025AF104619462CE795EA0C0F06D152EA77
:1048F80003353FF4FDAE1046194622E750EA41065B
:1049080018BF52EA43067FF4C5AE50EA41047FF46B
:104918000DAF52EA43057FF4EBAE12E74FF0FF3CD0
:1049280006E000BF4FF0010C02E000BF4FF0010CA1
:104938004DF804CD4FEA410C7FEA6C5C4FEA430C1A
:1049480018BF7FEA6C5C1BD001B050EA410C0CBF69
:1049580052EA430C91EA030F02BF90EA020F0020CB
:10496800704710F1000F91EA030F58BF994208BF32
:1049780090422CBFD8176FEAE37040F001007047EF
:104988004FEA410C7FEA6C5C02D150EA013C07D146
:104998004FEA430C7FEA6C5CD6D152EA033CD3D091
:1049A8005DF8040B704700BF8446104662468C468B
:1049B8001946634600E000BF01B5FFF7B7FF0028BE
:1049C80048BF10F1000F01BD4DF808EDFFF7F4FFE7
:1049D8000CBF012000205DF808FB00BF4DF808ED72
:1049E800FFF7EAFF34BF012000205DF808FB00BF95
:1049F8004DF808EDFFF7E0FF94BF012000205DF8B7
:104A080008FB00BF4DF808EDFFF7CEFF94BF01206B
:104A180000205DF808FB00BF4DF808EDFFF7C4FF64
:104A280034BF012000205DF808FB00BF4FEA410CAD
:104A38007FEA6C5C02D150EA013C0AD14FEA430C90
:104A48007FEA6C5C02D152EA033C02D14FF00000CD
:104A580070474FF0010070474FEA4102B2F1E0435E
:104A680024BFB3F5001CDCF1FE5C0DD901F0004C4D
:104A78004FEAC0024CEA5070B2F1004F40EB83009D
:104A880008BF20F00100704711F0804F21D113F1C9
:104A98003872BCBF01F00040704741F480114FEA02
:104AA8005252C2F11802C2F1200C10FA0CF320FA8B
:104AB80002F018BF40F001004FEAC1234FEAD323A8
:104AC80003FA0CFC40EA0C0023FA02F34FEA430312
:104AD800CCE77FEA625307D150EA01331EBF4FF09B
:104AE800FE4040F44000704701F0004040F0FE40B6
:104AF80040F40000704700BF80F0004002E000BFB3
:104B080081F0004142001FBF5FEA410392EA030FB0
:104B18007FEA226C7FEA236C6AD04FEA1262D2EBFA
:104B28001363C1BFD218414048404140B8BF5B42FF
:104B3800192B88BF704710F0004F40F4000020F098
:104B48007F4018BF404211F0004F41F4000121F0AE
:104B58007F4118BF494292EA030F3FD0A2F10102F8
:104B680041FA03FC10EB0C00C3F1200301FA03F136
:104B780000F0004302D5494260EB4000B0F5000F59
:104B880013D3B0F1807F06D340084FEA310102F118
:104B98000102FE2A51D2B1F1004F40EBC25008BFCA
:104BA80020F0010040EA03007047490040EB000094
:104BB80010F4000FA2F10102EDD1B0FA80FCACF1C3
:104BC800080CB2EB0C0200FA0CF0AABF00EBC250C2
:104BD80052421843BCBFD0401843704792F0000FB0
:104BE80081F4000106BF80F400000132013BB5E703
:104BF8004FEA41037FEA226C18BF7FEA236C21D079
:104C080092EA030F04D092F0000F08BF08467047DD
:104C180090EA010F1CBF0020704712F07F4F04D1AB
:104C2800400028BF40F00040704712F100723CBFBE
:104C380000F50000704700F0004343F0FE4040F4E8
:104C4800000070477FEA226216BF08467FEA2363A6
:104C58000146420206BF5FEA412390EA010F40F491
:104C6800800070474FF0000304E000BF10F00043DD
:104C780048BF40425FEA000C08BF704743F09643C4
:104C880001464FF000001CE050EA010208BF7047DF
:104C98004FF000030AE000BF50EA010208BF704766
:104CA80011F0004302D5404261EB41015FEA010C7B
:104CB80002BF84460146002043F0B64308BFA3F173
:104CC8008053A3F50003BCFA8CF2083AA3EBC25355
:104CD80010DB01FA02FC634400FA02FCC2F1200274
:104CE800BCF1004F20FA02F243EB020008BF20F0AB
:104CF8000100704702F1200201FA02FCC2F1200211
:104D080050EA4C0021FA02F243EB020008BF20EA05
:104D1800DC7070477BB972B90029BEBF00204FF024
:104D2800004106E008BF00281CBF6FF000414FF0AB
:104D3800FF3000F0BDB9ADF1080C6DE904CE0029D3
:104D480009DB002B1ADB00F04DF8DDF804E0DDE9A3
:104D5800022304B07047404261EB4101002B1BDB8A
:104D680000F040F8DDF804E0DDE9022304B0404239
:104D780061EB4101524263EB43037047524263EBDC
:104D8800430300F02FF8DDF804E0DDE9022304B066
:104D9800404261EB41017047524263EB430300F02C
:104DA80021F8DDF804E0DDE9022304B0524263EBA8
:104DB8004303704753B94AB9002908BF00281CBFEC
:104DC8004FF0FF314FF0FF3000F072B9ADF1080C31
:104DD8006DE904CE00F006F8DDF804E0DDE9022311
:104DE80004B070472DE9F047089E04468846002B1A
:104DF8004BD18A42154667D9B2FA82F24AB1C2F15A
:104E0800200701FA02F320FA07F7954047EA03085A
:104E180094404FEA154E230CB8FBFEF71FFA85FCA9
:104E28000EFB178843EA084307FB0CF1994209D99E
:104E3800EB1807F1FF3080F01B81994240F218818E
:104E4800023F2B445B1AA4B2B3FBFEF00EFB1033F7
:104E580044EA034400FB0CFCA44509D92C1900F1D1
:104E6800FF3380F00781A44540F2048102382C44C6
:104E780040EA0740A4EB0C0400271EB1D4400023ED
:104E8800C6E900433946BDE8F0878B4209D9002EB0
:104E980000F0EB800027C6E9000138463946BDE836
:104EA800F087B3FA83F7002F47D18B4202D38242AF
:104EB80000F2FA80841A61EB030301209846002E61
:104EC800E0D0C6E90048DDE702B9FFDEB2FA82F2B7
:104ED800002A40F08F80491B4FEA154E1FFA85F8CB
:104EE8000127B1FBFEFC230C0EFB1C1143EA014316
:104EF80008FB0CF1994207D9EB180CF1FF3002D2EC
:104F0800994200F2CD808446591AA3B2B1FBFEF053
:104F18000EFB101443EA044408FB00F8A04507D927
:104F28002C1900F1FF3302D2A04500F2B6801846D2
:104F3800A4EB080440EA0C409FE7C7F1200CBB40F3
:104F480022FA0CFE4EEA030E01FA07F420FA0CF5D9
:104F580021FA0CF34FEA1E482543B3FBF8F92C0C51
:104F680008FB19331FFA8EFA44EA034309FB0AF4D3
:104F78009C4202FA07F200FA07F10BD91EEB030371
:104F880009F1FF3080F087809C4240F28480A9F1CB
:104F9800020973441B1BADB2B3FBF8F008FB1033D6
:104FA80045EA034400FB0AFAA24508D91EEB0404AB
:104FB80000F1FF336BD2A24569D90238744440EA44
:104FC8000940A0FB0289A4EB0A044C45C2464B46A3
:104FD80054D351D0002E69D0B1EB0A0564EB030419
:104FE80004FA0CFCFD40FC404CEA0505C6E90054F7
:104FF800002747E7C2F1200320FA03F7954001FA9A
:1050080002F021FA03F34FEA154E3843010CB3FBC3
:10501800FEF71FFA85F80EFB173341EA034107FB39
:1050280008F38B4204FA02F407D9691807F1FF3C28
:105038002FD28B422DD9023F2944CB1A81B2B3FB20
:10504800FEF00EFB103341EA034100FB08F38B42EC
:1050580007D9691800F1FF3C17D28B4215D90238DD
:105068002944C91A40EA07473BE73746304609E76B
:105078000746E7E61846FBE64145ABD2B8EB020A1D
:1050880069EB0E0201381346A4E76046E9E71846C3
:1050980095E76746D1E781467CE702382C4447E725
:1050A800ACF1020C2B442FE7384608E73746E9E60F
:1050B800704700BF10F8012B11F8013B012A28BFE7
:1050C8009A42F7D0D01A7047034613F8012B002AEA
:1050D800FBD1181A0138704700F108034FF0FF326E
:1050E8004360C0E902230361002303607047002383
:1050F8000361704743684B609A688A609A68516098
:105108009960086103680133036070470A68531C9B
:1051180030B50AD103695A684A6091608B6059605A
:10512800086103680133036030BD00F108035C685F
:1051380025689542EFD82346F9E7D0E901210369AC
:105148009160D0E9011251605A68824204BF8268B6
:105158005A60002202611868013818607047000020
:10516800064A13681968064B19B94FF0FF321A60DE
:1051780070471268D268D2685268F8E7DC0C0020E1
:10518800A40D002010B5044628B940F2665209491A
:10519800094808F045F96269084B9A4207D1A06AA4
:1051A800074B984203D0B0FA80F0400910BD0020A8
:1051B800FCE700BFBAE90108D3E90108C40D0020E3
:1051C800AC0D002010B50E4B1A6850600D4A1268DD
:1051D8008242044607D90C4A10681968BDE8104095
:1051E8000431FFF793BF094A106819680431FFF7C3
:1051F8008DFF074B1A68A24288BF1C6010BD00BF14
:10520800D80C0020EC0D0020E00C0020DC0C002065
:10521800A40D00202DE9F0430D68002D3DD04B680A
:105228005C684C6001F10807BC4204BFCB684B6066
:105238004B680025D3F80CE04FF002080346486895
:1052480040684860874204BFC86848604868C468C6
:105258001C6004F134005860206C98601A73E06A8E
:105268001861032A03D1A06A08B183F80C80A06CE6
:105278005861606D9861D4F830C06646A6EB0C00A2
:1052880016F8019BB9F1A50FF8D08008A6459883B8
:1052980005F1010503F12003D1D12846BDE8F083CB
:1052A8002DE9F84F0A9F0C9E884615469B46824674
:1052B80028B940F22D226849684808F0B1F8052F4E
:1052C80005D940F22E226449654808F0A9F836B994
:1052D800A80001F0B3FC0646002800F0B08060206A
:1052E80001F0ACFC0446002800F0A680AD002A4678
:1052F8000663A521304619F073FA236B043D1D445B
:1053080008F1FF3225F0070904F1340108F1090812
:1053180012F8010F01F8010B107808B19045F7D188
:10532800052F4FF00005B84604F1040628BF4FF0DA
:105338000508304684F83D50C4F82C80C4E912852D
:10534800FFF7D5FE04F11800FFF7D1FEC8F10602F9
:10535800A261A56524616462C4E9145584F85C50AF
:105368005A465146484601F081FD0B9B206003B127
:105378001C6001F09DFD3B4B3B4D1A68DFF8248112
:1053880001321A602A68002A5CD12C601B68012B44
:105398002AD13648DFF810A1DFF81091FFF79CFEFC
:1053A8003348FFF799FE3348FFF796FE3248FFF778
:1053B80093FE3248FFF790FE3148FFF78DFE5046C6
:1053C800FFF78AFE4846FFF787FE2E48FFF784FE60
:1053D8002D48FFF781FE2D48FFF77EFE2C4BC3F8C2
:1053E80000A02C4BC3F800902B4A2C49136808687E
:1053F80001331360E26A2364012404FA02F30343CD
:105408000B601A4B142000FB02303146FFF772FE86
:1054180001F070FDD8F800305BB12B68DB6ABB4245
:1054280007D21F4B4FF080521A60BFF34F8FBFF364
:105438006F8F2046BDE8F88F304601F09DFC4FF095
:10544800FF34F6E7D8F80030002BCDD12B68DB6AA3
:10545800BB4298BF2C60C7E7BAE90108A4EA010873
:10546800AFEA0108600D0020D80C0020E40C0020F1
:10547800F80C00200C0D0020200D0020340D002019
:10548800480D0020AC0D0020D80D0020C40D0020D0
:10549800DC0C0020E00C00206C0D0020740D0020B6
:1054A80004ED00E0C00D0020780D00208C0D0020D8
:1054B80038B5044601F0FCFC0CB9244B1C68251DCA
:1054C8002846FFF73AFE60B9E06A214B14214143B0
:1054D8005B5833B91F4901220B68824023EA020353
:1054E8000B60A36A1BB104F11800FFF726FE2946DA
:1054F8001948FFF7FFFD194A136801331360184A6A
:1055080013680133136001F0F5FC164B1B68A3B157
:105518000E4B1B68A34211D1134B1B682BB140F2F1
:105528001E321249124807F07BFF124B4FF080528F
:105538001A60BFF34F8FBFF36F8F38BD01F0B8FC0F
:10554800FFF70EFEBDE8384001F0D4BCD80C0020AF
:10555800E40C0020740D0020D80D0020700D0020F0
:105568006C0D0020C00D0020680D0020BAE901086C
:1055780004EA010804ED00E0F8B5044688BB4FF4DE
:10558800B2621A491A48BDE8F84007F049BF01F06D
:105598008FFC2046FFF7F6FD012805461DD1271D83
:1055A8003846FFF7CAFD134AE36A11689D400D4368
:1055B8001560114A142000FB03203946FFF79AFDB5
:1055C8003368E26ADB6A9A4207D30C4B4FF0805289
:1055D8001A60BFF34F8FBFF36F8FBDE8F84001F03B
:1055E80089BC074E33688342D1D1F8BDBAE90108B6
:1055F8002AEA0108740D0020E40C002004ED00E004
:10560800D80C00201FB51A4B1A491B480024CDE9B5
:105618000043CDE9024423469622FFF741FE0128C4
:105628001AD101F02FF9012816D14FF05F0383F347
:105638001188BFF36F8FBFF34F8F104B4FF0FF32BE
:105648001A600F4B18600F4B1C600EF0A9FD04B0D8
:10565800BDE8104001F0BABC40B90B490B4840F214
:10566800516204B0BDE8104007F0DABE04B010BDC6
:10567800A00D002042EA01080D5A0008A40D0020E0
:10568800C00D0020EC0D0020BAE9010847EA010826
:10569800024A136801331360704700BF680D002089
:1056A800014B1868704700BFEC0D00202DE9F84F3A
:1056B8003D4B3E4A196811603D4A1268002A6BD179
:1056C8001A6801321A601D68A5B93A4C23681B682C
:1056D8002BB140F2AA723849384807F0A1FE384B7E
:1056E8002268196821601A60364A1368013313600A
:1056F800FFF736FD344C354F2368AB424FF0000BB3
:1057080011D93A68324BD16A14224A439A58022A6C
:1057180028BF4FF0010B2F4A1268002A0CBF5846C9
:105728000120BDE8F88FDFF88CA0DFF8B090DAF838
:10573800002012681AB94FF0FF322260E1E7DAF868
:105748000020D268D66871688D4201D22160D8E7FE
:1057580006F104084046FFF7F0FCB16A19B106F1FA
:105768001800FFF7EAFCF06AD9F80030012202FAC3
:1057780000F11943164BC9F800104FF0140C4146BC
:105788000CFB0030FFF7B6FC3868F16AC26A914238
:1057980028BF4FF0010BCAE70F4A136801331360A3
:1057A8004FF0000BB7E700BFEC0D0020080000E049
:1057B800680D0020DC0C0020BAE9010812EB010892
:1057C800E00C0020A80D0020A40D0020D80C00201B
:1057D800E40C0020F00D0020640D0020740D002062
:1057E8002DE9F8432E4C23682BB940F28E622D49DF
:1057F8002D4807F015FE01F05BFB2368013B236091
:1058080023682BB1002401F075FB2046BDE8F8831E
:10581800264B1B68002BF5D0254D264EDFF8A880B7
:105828002B689BB9244C23681BB1244D012623689F
:105838006BBB224B1C68012CE4D1214B4FF08052EA
:105848001A60BFF34F8FBFF36F8FDCE7EB68DC683C
:1058580004F1040904F11800FFF76FFC4846FFF74C
:105868006CFCE26A3168012707FA02F314200B4343
:1058780000FB028049463360FFF73CFC114BE26AAB
:105888001B68DB6A9A42CBD30C4B1F60C6E7FFF755
:105898000DFF00B12E602368013B2360C7E700BFFE
:1058A800680D0020BAE9010877EB0108600D0020B7
:1058B800AC0D0020740D0020640D0020F00D0020B8
:1058C80004ED00E0D80C0020E40C002038B50C46AC
:1058D800054628B940F23F322149224807F0A0FD89
:1058E8002CB94FF450721E491F4807F099FD1F4B01
:1058F8001B682BB140F2413219491D4807F090FD51
:10590800FFF7C6FE1B4B1A682B681C192CBF012118
:10591800002193422C600CD961B9FFF761FF38B9B7
:10592800154B4FF080521A60BFF34F8FBFF36F8F44
:1059380038BD09B9A242F0D2104D28680430FFF7EB
:10594800FCFB40B92A680E49D06A0B6801228240E4
:1059580023EA02030B602046FFF734FCDDE700BFB3
:10596800BAE90108D9E90108ECE90108680D002045
:1059780004EA0108EC0D002004ED00E0D80C00203A
:10598800740D002038B5054640B9174B4FF08052CA
:105998001A60BFF34F8FBFF36F8F38BD134B1B686F
:1059A8002BB140F2A3321249124807F039FDFFF734
:1059B8006FFE114B1C682C44104D28680430FFF70B
:1059C800BCFB40B92A680E49D06A0B6801228240A4
:1059D80023EA02030B602046FFF7F4FBFFF700FF02
:1059E8000028D2D0D9E700BF04ED00E0680D002000
:1059F800BAE9010804EA0108EC0D0020D80C0020DF
:105A0800740D002008B5124E124C236813B903F028
:105A18005FFCF9E7FFF73CFE3568FFF7E1FE002D74
:105A2800F3D001F045FAF368DD68281DFFF785FB20
:105A3800094A1368013B13602368013B236001F0A6
:105A480059FA286B01F098F9284601F095F9DCE736
:105A5800D80D0020700D0020600D00202DE9F041C8
:105A680005461746FFF714FE1E4B1B688B4236D8B7
:105A78000026DFF88480344608EB060105EB441065
:105A88000122FFF7C7FB143E16F1780F0444F3D147
:105A9800154B0222196805EB4410FFF7BBFB134BAB
:105AA80004441968022205EB4410FFF7B3FB0444D1
:105AB80004220F4905EB4410FFF7ACFB044405EB47
:105AC800441003220B49FFF7A5FB044417B10EF05D
:105AD800A9FB3860FFF784FE2046BDE8F08100246A
:105AE800F8E700BF600D0020DC0C0020E00C00206F
:105AF800D80D0020C40D0020480D002038B50D46F3
:105B0800044608B9044B1C6801F0D2F92565BDE8C4
:105B1800384001F0EFB900BFD80C002070B51E4B1B
:105B28001A681E4B12B101221A6070BD1A600EF07D
:105B380079FB1B4A1B4E1468A04204D931684B6D8F
:105B48001B1B03444B65184B10601C68B4FA84F4A3
:105B5800E4B2C4F11F041423144D6343EB582BB96A
:105B680040F6C8021249134807F05AFC142202FBF7
:105B780004F3E91808334868406848602B449842A1
:105B880004BF43684B6002FB04546368DB683360FE
:105B980033685A6B084BC7E7680D0020F00D0020EA
:105BA8005C0D0020D80C0020740D0020E40C0020AF
:105BB800BAE901084FEA0108040000E0F8B5044614
:105BC800284D01F075F904B92C68261D3046FFF7F9
:105BD800B4FA60B9E06A244B142141435B5833B9E5
:105BE800224901220B68824023EA02030B60A36A60
:105BF8001BB104F11800FFF7A0FA1D4F31463846D3
:105C0800FFF778FA01F076F92B68A342194B1B6865
:105C18001DD18BB1184B1B682BB140F22E5217497E
:105C2800174807F0FDFB174B4FF080521A60BFF37F
:105C38004F8FBFF36F8FF8BD134A396812689142CE
:105C480001D12B60F7E7BDE8F840FFF767BF002BED
:105C5800F1D001F02DF9FFF783FABDE8F84001F023
:105C680049B900BFD80C0020E40C0020740D0020B6
:105C7800C40D0020C00D0020680D0020BAE90108FD
:105C880004EA010804ED00E0600D002070B50D463F
:105C9800064628B940F6DA021349144807F0C0FB53
:105CA800134C216830461831FFF730FA2068043069
:105CB800FFF743FA40B922680E49D06A0B680122FF
:105CC800824023EA02030B606B1C06D121680A4854
:105CD8000431BDE87040FFF70DBA084B1868284436
:105CE800BDE87040FFF76EBABAE901081EEA01087C
:105CF800D80C0020740D0020C40D0020EC0D0020ED
:105D0800F8B50D461646074628B940F65912144903
:105D1800144807F085FB144C216838461831FFF702
:105D2800E9F920680430FFF708FA40B922680F49FA
:105D3800D06A0B680122824023EA02030B60012E1D
:105D480006D121680A480431BDE8F840FFF7D2B906
:105D5800084B18682844BDE8F840FFF733BA00BF7D
:105D6800BAE901081EEA0108D80C0020740D0020C9
:105D7800C40D0020EC0D002038B5C368DC682CB9D0
:105D880040F6B4121549164807F04AFB04F1180505
:105D98002846FFF7D2F9134B1B68E3B9251D28469F
:105DA800FFF7CBF91049E26A0868012393400343DF
:105DB8000B600E4B1420294600FB0230FFF79AF9BE
:105DC8000B4BE26A1B68DB6A9A4283BF094B0120CE
:105DD8001860002038BD29460748EFE7BAE90108EE
:105DE80068EB0108680D0020740D0020E40C002009
:105DF800D80C0020F00D0020AC0D002010B5044692
:105E080028B940F614220549054807F009FB054B57
:105E18001B682360044B1B68636010BDBAE9010866
:105E280038EA0108A80D0020EC0D002070B50D46D9
:105E3800044628B940F61E221449154807F0F0FA1E
:105E48002DB940F61F221149124807F0E9FA01F06E
:105E58002FF8114B19682B685A1C10D00F4A10687C
:105E6800D4E90062864201D091420DD2881A834259
:105E78000AD95B1A13442B602046FFF7BFFF0024A2
:105E880001F038F8204670BD0124F9E7BAE90108A5
:105E980038EA010896EA0108EC0D0020A80D002058
:105EA800014B01221A607047F00D0020054B1B685A
:105EB80033B1054B1B68002B0CBF02200020704734
:105EC80001207047C00D0020680D00202DE9F04129
:105ED800044600282ED01E4DC36A2A68D26A93420F
:105EE80028D282691B4E002AA1BF2A68D26AC2F151
:105EF800060282611427426907FB03639A4216D19E
:105F080000F104084046FFF718F9134AA0B12B68BE
:105F18001168D86AE062012383400B43136014239D
:105F2800414603FB0060BDE8F041FFF7E3B82B688A
:105F3800DB6AC362BDE8F081E06A4743F359002B8E
:105F4800E5D113680121814023EA01031360DEE7EC
:105F5800D80C0020E40C0020740D0020F8B504468D
:105F680008B90020F8BD204B1B68834205D040F6D5
:105F7800A7521E491E4807F053FAE36C2BB940F6A6
:105F8800A9521A491B4807F04BFAE36CE16AA26C64
:105F9800013B9142E364E4D0002BE2D1251D284661
:105FA800FFF7CBF8144E154A50B9E76A1421794324
:105FB80073582BB913680120B84023EA0003136013
:105FC800A36CE362C3F10601A1611168012404FA1C
:105FD80003F008431060142000FB03602946FFF714
:105FE80089F82046BEE700BFD80C0020BAE90108AE
:105FF8003DEB010853EB0108E40C0020740D002070
:10600800044B1A681AB11968CA6C0132CA64186854
:10601800704700BFD80C002038B51546026C0446FE
:106028005AB905680DB1002003E04068FFF796FFF4
:106038006560A36B0133A36338BD65B9806818F048
:10604800ABFBA368226C13446268A3609342EAD353
:106058002368A360E7E7C06818F09EFB236CE2683A
:1060680021685B421A448A42E2603EBF62689B181C
:10607800E360022DD7D1A36B002BD4D0A36B013BD7
:10608800A363D0E7034610B41A6C084662B1D96816
:106098005C681144A142D96024BF1968D960D968E5
:1060A8005DF8044B18F078BB5DF8044B704738B5C1
:1060B800044600F0FDFE04F12405A36C002B12DC5D
:1060C8004FF0FF33A36400F015FF00F0F1FE04F178
:1060D8001005636C002B13DC4FF0FF336364BDE8DD
:1060E800384000F007BF636A002BE9D02846FFF765
:1060F80043FE08B1FFF7D4FEA36C013BA364DCE7C1
:106108002369002BE8D02846FFF736FE08B1FFF7D1
:10611800C7FE636C013B6364DBE7000038B50D46DE
:10612800044628B94FF4847219491A4807F078F9D7
:1061380000F0BEFED4E90F312268A2604B43D018AC
:106148005B1A13446060E36000204FF0FF33A063E4
:106158006364A3649DB923696BB104F11000FFF770
:106168000BFE012807D10C4B4FF080521A60BFF389
:106178004F8FBFF36F8F00F0BDFE012038BD04F1D3
:106188001000FEF7A9FF04F12400FEF7A5FFF2E7CF
:10619800F9EB010812EC010804ED00E0F8B50D4632
:1061A8001746064628B940F243121349134807F028
:1061B80037F97DB105FB06F00130543000F03EFDA3
:1061C800044648B940F27F120B490D4807F028F9F8
:1061D8002046F8BD2846F0E74DB92060C4E90F65B0
:1061E80001212046FFF79AFF84F85070F0E700F18C
:1061F80054030360F2E700BFF9EB01088CEB0108D8
:1062080047EA01082DE9FF470F4601921E4604465A
:1062180028B940F267225749574807F001F93FB9B2
:10622800236C2BB14FF41A725249544807F0F8F80E
:10623800022E08D1E36B012B05D040F269224D49AB
:106248004F4807F0EDF8FFF731FE38B9019B2BB145
:106258004FF41B7247494B4807F0E2F8DFF82891E2
:10626800DFF828814FF0000A00F022FEA26BE36BF2
:106278009A4201D3022E22D1E36C434A43F480733D
:106288001360394632462046FFF7C6FE636A73B18B
:1062980004F12400FFF770FD01280AD13B4B4FF0B1
:1062A80080521A60BFF34F8FBFF36F8F01E0002851
:1062B800F4D100F01FFE012004B0BDE8F087019D75
:1062C80045B900F017FEE36C2F4A43F400731360DE
:1062D8000020F1E7BAF1000F02D102A8FFF78EFD06
:1062E80000F008FEFFF7D4F900F0E2FD636C01331B
:1062F80004BF00236364A36C013304BF0023A364B9
:1063080000F0F8FD01A902A8FFF790FD58BB00F0C6
:10631800CFFDA26BE36B9A4214D100F0EBFDE36C66
:1063280043F48063C9F80030019904F11000FFF7C5
:10633800ADFC2046FFF7BBFEFFF752FA50B14FF015
:10634800010A91E700F0D6FD2046FFF7B0FEFFF7FF
:1063580047FAF4E74FF08053C8F80030BFF34F8F87
:10636800BFF36F8FEBE72046FFF7A1FEFFF738FA80
:10637800A9E700BFF9EB010812EC01081AEC0108C3
:106388006AEC0108B1EC01080C0000E004ED00E043
:1063980070B50646542000F051FC0446D8B10025DB
:1063A8000123C0E90F354FF0FF33856380F8506053
:1063B8004364C0E900558364C0E902551030FEF714
:1063C8008BFE04F12400FEF787FE2B462A46294659
:1063D8002046FFF717FF204670BD00002DE9F04169
:1063E800884616461D46044628B940F224422649E6
:1063F800264807F015F8B8F1000F07D1236C2BB128
:1064080040F225422049224807F00AF8022D08D117
:10641800E36B012B05D040F226421B491D4806F0CC
:10642800FFFF00F049FEEFF311874FF05F0383F39E
:106438001188BFF36F8FBFF34F8FA26BE36B9A4244
:1064480001D3022D1DD12A4641462046FFF7E4FD1F
:10645800A36C013311D1636A0BB9012009E004F17F
:106468002400FFF789FC0028F7D0002EF5D0012082
:10647800306087F31188BDE8F081A36C0133A36411
:10648800EBE70020F5E700BFF9EB010812EC010883
:106498001AEC01086AEC010870B50D46044628B9E3
:1064A80040F2BF422149224806F0BAFF236C2BB1C3
:1064B80040F2C3421D491F4806F0B2FF23683BB9AA
:1064C80063682BB14FF4996218491B4806F0A8FF7E
:1064D80000F0F2FDEFF311864FF05F0383F31188AC
:1064E800BFF36F8FBFF34F8FA26BE36B9A421AD241
:1064F800A36B0133A363A36C013310D1636A0BB997
:10650800012009E004F12400FFF736FC0028F7D049
:10651800002DF5D00120286086F3118870BDA36C8A
:106528000133A364ECE70020F6E700BFF9EB0108AC
:1065380012EC010807ED010820ED01082DE9FF47DD
:106548000E4601929846044628B940F25B525549D6
:10655800554806F065FF3EB9236C2BB140F25C52FA
:106568005049524806F05CFFFFF7A0FC38B9019B80
:106578002BB140F25F524B494D4806F051FFDFF80E
:1065880038914C4F4FF0000A00F092FCA36B7BB39C
:1065980031462046E568FFF775FDB8F1000F18D1C0
:1065A800A36B013BA363236813B9FFF729FD606060
:1065B8002369BBB104F11000FFF7DEFB012811D1FC
:1065C8003C4B4FF080521A60BFF34F8FBFF36F8F71
:1065D80008E0636AE5602BB104F12400FFF7CCFB07
:1065E8000028EDD100F086FC012004B0BDE8F0875A
:1065F800019D1DB900F07EFC0020F6E7BAF1000FFE
:1066080002D102A8FFF7FAFB00F074FCFFF740F88C
:1066180000F04EFC636C013304BF00236364A36C79
:10662800013304BF0023A36400F064FC01A902A89D
:10663800FFF7FCFB80BB00F03BFCA36B13BB00F037
:1066480059FCE36C43F44073C9F80030236833B94C
:1066580000F02EFC6068FFF739FC00F04BFC019954
:1066680004F12400FFF712FB2046FFF720FDFFF797
:10667800B7F870B94FF080533B60BFF34F8FBFF34B
:106688006F8F06E000F036FC2046FFF710FDFFF79D
:10669800A7F84FF0010A77E72046FFF708FDFFF754
:1066A8009FF8A9E7F9EB010812EC0108AEEB010825
:1066B800B1EC010804ED00E00C0000E0F8B50F466D
:1066C8001646044628B940F215621D491D4806F0D1
:1066D800A7FE3FB9236C2BB140F2166218491A483D
:1066E80006F09EFE00F0E8FCEFF311854FF05F0323
:1066F80083F31188BFF36F8FBFF34F8FA06BB8B1CF
:1067080039462046FFF7BEFCA36B013BA363636CCD
:10671800013310D123690BB9012009E004F11000FD
:10672800FFF72AFB0028F7D0002EF5D001203060B3
:1067380085F31188F8BD636C01336364ECE700BF2F
:10674800F9EB010812EC0108AEEB010810B504469C
:1067580028B94FF4D4620549054806F061FE00F0F7
:10676800A7FBA46B00F0C6FB204610BDF9EB01089F
:1067780013EC010830B5074A002352F8335002EBF6
:10678800C3041DB942F83310606030BD01330A2BD1
:10679800F3D1FAE7C4F7002070B504460D46164653
:1067A80000F086FB636C013304BF00236364A36CB1
:1067B800013304BF0023A36400F09CFBA36B2BB937
:1067C8003246294604F12400FFF79AFA2046BDE82C
:1067D8007040FFF76CBC0000F8B5134C00F068FB84
:1067E8002568EDB9114F124E3846FEF775FC304654
:1067F800FEF772FC0F4B1F600F4B2A460C2114202A
:106808001E60FFF7CBFC206028B940F21A320B4912
:106818000B4806F005FE206810B10A49FFF7AAFFE9
:10682800BDE8F84000F066BB280E0020FC0D0020F3
:10683800100E0020F40D0020F80D00207BED01085B
:1068480095ED0108A1ED0108914208B5416000618C
:106858000AD8D21A83699A420DD2084B011D1868CA
:10686800FEF754FC002008BD9A4201D2994202D298
:10687800011D034BF3E70120F5E700BFF80D0020E9
:10688800F40D00201FB5FFF7A7FF0E4B1B684BB98F
:106898000D480E494FF4877206F0C2FD002005B07E
:1068A8005DF804FB002301220092CDE90233019335
:1068B8004FF4967206490748FEF7F2FC0028E7D025
:1068C800EDE700BF280E002047EA01087BED01082C
:1068D800EFED0108156A00082DE9F04180461746DA
:1068E8001E460D4699B12C2000F0A8F9044658B16F
:1068F800FFF772FF069BC4F80080C4E906572662BA
:106908006362201DFEF7F3FB2046BDE8F0814FF4DB
:106918009B720349034806F083FD2C46F4E700BF49
:106928007BED0108D3ED01082DE9FF410D469046A6
:106938001F46064628B940F241121049104806F091
:106948006FFD104C206880B1052DCDE901580396E4
:106958000EDCFFF7ABFA0023022808BF0A9A20686A
:1069680018BF1A4601A9FFF74DFC04B0BDE8F08135
:1069780000233A4601A9FFF731FDF6E77BED010850
:10698800F7ED0108280E00202DE9F7431B4D1C4F99
:10699800DFF874802B681A6832B91A4A11682960BE
:1069A800136003B0BDE8F083DB68DC681E6804F19F
:1069B80004094846FEF7C1FB636A20469847E36925
:1069C800012BE7D1A36933449E4206D26360246158
:1069D80049462868FEF79AFBDCE700230093324615
:1069E80019462046FFF7A0FF0028D3D14FF43F7285
:1069F8003946404606F014FDCCE700BFF40D0020F0
:106A08007BED0108F80D0020A6ED01082DE9F04FF7
:106A1800654F664E89B0BB463A681368002B44D070
:106A2800D268D2F800A0624C0393FEF731FEFEF75D
:106A380037FE2268DFF88C81039B90420546A14609
:106A480035D2FFF7A1FF2560FEF7CAFE00231A46DC
:106A580005A9D8F80000FFF771FD0028DCD0059BD8
:106A6800002BF3DB079C636913B1201DFEF765FB60
:106A7800FEF716FED9F800309842054601D2FFF716
:106A880083FF059BC9F80050092BDFD8012202FAC1
:106A980003F313F4047A75D113F0C70F4DD19B0695
:106AA800D4D5204600F068F9D0E79A46BBE72060C5
:106AB80043B382453FD8FEF793FEDBF80030DB682E
:106AC800DC68201DFEF739FBE369012B16D1A169AB
:106AD80053462A4651442046FFF7B6FE01280DD1F9
:106AE80000230093524619462046FFF71DFF28B998
:106AF80040F2931231462F4806F092FC636A204612
:106B08009847A3E72C4B1B681A68B2FA82F252091D
:106B1800AAEB0501D8F80000FFF73EFEFEF760FE7D
:106B2800002893D1254B4FF080521A60BFF34F8F46
:106B3800BFF36F8F8AE70022EAE7A169069B2A461E
:106B480019442046FFF780FE01287FF47FAF636A6F
:106B580020469847E369012B7FF478AFA26906992C
:106B6800CDF800A00A44534651462046FFF7DCFE04
:106B780000287FF46BAF4FF4287231460D4806F0B9
:106B88004FFC63E7069BA3612BB940F2B72231465D
:106B98000B4806F045FCA1692B462A4629442046A5
:106BA800FFF752FE52E700BFF40D00207BED01080D
:106BB800240E0020A6ED0108F80D002004ED00E0E9
:106BC800AEED0108280E002010B5044628B94FF490
:106BD80053720549054806F023FC00F069F9246A58
:106BE80000F088F9204610BD7BED0108F7ED01089B
:106BF80010B5104B1A68824219D35C68191988427B
:106C080001BF416818460919596041684418A242F1
:106C180008D1094C2468A24204D052680A44426050
:106C28001A6812680260984218BF186010BD1346AF
:106C3800E0E700BF7CAA00202C0E00202DE9F843D5
:106C48000446FEF725FD4249424E0B68FBB9424A0D
:106C5800424D50071FBF0732414B22F007029B1AD3
:106C680008BF49F640431344083B23F007030020BC
:106C780068602A60C3E90000981A0B60C2E9003016
:106C8800384B1860384B18604FF000433360336856
:106C98001C4205D0FEF7A4FD02F0B6F9002748E033
:106CA800002CF7D0083462071CBF24F0070408340E
:106CB800002CEFD02C4B1A68A2429846EAD3274BF7
:106CC8001D686A68A24202D22A68002A3CD10A6872
:106CD800AA42DFD02A681F681A606B681B1B102B3A
:106CE80007F1080711D905EB040919F0070F04D0BB
:106CF800E8221E491E4806F093FB6B681B1BC9F867
:106D0800043048466C60FFF773FF16496A68D8F884
:106D1800003008689B1A834238BF0B60C8F80030FF
:106D2800336813436B6000232B60FEF759FD002F77
:106D3800B2D07B0705D04FF494720C490D4806F089
:106D48006FFB3846BDE8F8832B461546B9E700BF08
:106D58002C0E002070AA0020300E00207CAA0020F3
:106D680070AA002078AA002074AA0020FEED01086D
:106D780029EE01086AEE010838B5044680B3194DBA
:106D880050F8041C2A68114205D14FF49E72164926
:106D9800164806F045FB54F8083C2BB140F23D126A
:106DA8001149134806F03CFB54F8043C2A68134286
:106DB80016D054F8081C99B923EA020344F8043C95
:106DC800FEF766FC0B4A54F8043C1168A4F108006D
:106DD8000B441360FFF70CFFBDE83840FEF700BD19
:106DE80038BD00BF70AA0020FEED0108A7EE01081B
:106DF800D8EE010874AA0020014B1868704700BF3C
:106E080074AA002006480068006880F3088862B603
:106E180061B6BFF34F8FBFF36F8F00DF00BF000075
:106E280008ED00E0DFF80C00016841F47001016032
:106E38007047000088ED00E008B5094B1B68013376
:106E480005D040F207120749074806F0E9FA4FF063
:106E58005F0383F31188BFF36F8FBFF34F8FFEE794
:106E680000000020F8EE010826EF01084FF08073BB
:106E780040E90213054B40F80C3C6FF0020340F860
:106E8800202C40F8243C4438704700BF416E00086D
:106E9800064B19680868B0E8F04F80F30988BFF31B
:106EA8006F8F4FF0000080F311887047D80C0020D6
:106EB8004FF05F0383F31188BFF36F8FBFF34F8FDA
:106EC800084A13680133012B13600AD1064B1B686B
:106ED80013F0FF0F05D040F29F120449044806F052
:106EE8009FBA70470000002004ED00E0F8EE0108AA
:106EF80040EF010810B5084C23682BB94FF4D37242
:106F08000649074806F08CFA2368013B23600BB951
:106F180083F3118810BD00BF00000020F8EE0108BF
:106F280075EF0108EFF30980BFF36F8F144B1A68F0
:106F38001EF0100F08BF20ED108A20E9F04F1060F6
:106F48004DF8043D4FF05F0080F31188BFF34F8F79
:106F5800BFF36F8FFEF7E2FD4FF0000080F311885A
:106F680008BC19680868B0E8F04F1EF0100F08BF99
:106F7800B0EC108A80F30988BFF36F8F704700BFA9
:106F8800D80C002008B5EFF311834FF05F0282F3AD
:106F98001188BFF36F8FBFF34F8FFEF787FB18B1D0
:106FA800034B4FF080521A60002383F3118808BD09
:106FB80004ED00E0034B044A1A60072243F8042C4E
:106FC800704700BF14E000E03F90020013B52E4C5C
:106FD8002E4A2168914205D140F23D122C492D4894
:106FE80006F01EFA22682C4B9A4205D14FF49F7284
:106FF80027492A4806F014FA294B1A78D2B2019286
:10700800FF221A701B78274ADBB28DF803309DF8EF
:10701800033003F05F031370234B07221A6000212B
:107028009DF80300000602F1FF3423D401B11A6071
:107038001A68120202F4E0621A60019B184ADBB275
:1070480013701A4B1A6842F47F021A601A6842F0E9
:107058007F421A60FFF7AEFF154B00221A60FFF758
:10706800E1FE144A136843F040431360FFF7CAFE79
:10707800FFF7E2FE9DF803205200D2B28DF80320FC
:1070880001212246CCE700BF00ED00E071C20F41AC
:10709800F8EE0108F3EF010870C20F4116F001087D
:1070A80000E400E084AA002088AA002020ED00E087
:1070B8000000002034EF00E008B5EFF305830F2B44
:1070C8000BD90E4A9B5C0E4A12789A4205D94FF4A6
:1070D80038720C490C4806F0A3F90C4B0C4A1B6893
:1070E800126803F4E063934207D94FF43C720549F0
:1070F8000848BDE8084006F093B908BDF0E300E091
:1071080084AA0020F8EE010887EF01080CED00E0E2
:1071180088AA0020B1EF010808B501214FF480705A
:1071280000F058FC00214FF48070BDE8084000F0E2
:1071380051BC000043680A7923F0407323F480733C
:1071480043EA02230A6813434360D1E90323134344
:107158008A6810B513438468084A224013434A7961
:1071680043EA420383600A7DC36A013A23F4700349
:10717800D2B243EA0253C36210BD00BFFDF7FFC09D
:107188000023036003714371C0E9023303610123E3
:107198000375704710B5D0E90032064913434C68AF
:1071A800054A2240134382681343C26813434B6065
:1071B80010BD00BF00230140E030FCFF0023C0E900
:1071C8000033C0E902337047836819B143F0010303
:1071D8008360704723F00103FAE7092970B51BD9CA
:1071E800A1F10A04C56804EB44040726A64025EA71
:1071F800060503FA04F42C43C460062A18D8013A99
:10720800436B02EB82021F24944023EA040301FA31
:1072180002F21A43426370BD056901EB4106072477
:10722800B44025EA040503FA06F42C430461E4E7B4
:107238000C2A0CD8073A036B02EB82021F249440F5
:1072480023EA040301FA02F21A430263E3E70D3A60
:10725800C36A02EB82021F24944023EA040391408C
:107268001943C162D7E7836843F08043836070475E
:10727800C06C80B270470368194214BF0120002017
:1072880070470000044B5A6811B1104358607047AA
:1072980022EA0000FAE700BF002004E0044BDA68A5
:1072A80011B11043D860704722EA0000FAE700BF26
:1072B800002004E0036823F0010303600023036057
:1072C80043608360C3600361212343612A4B984272
:1072D80003D13D2243F8082C7047284B984204D12B
:1072E8004FF4746243F8202C7047254B984204D120
:1072F8004FF4741243F8382C7047224B984204D14B
:107308004FF0746243F8502C70471F4B984203D1DA
:107318001E4A43F8642C70471D4B984203D11D4AFE
:1073280043F87C2C70471C4B984203D11B4A43F806
:10733800942C70471A4B984204D14FF03D5243F8B1
:10734800AC2C17E0174B9842C3D0174B9842C7D0C4
:10735800164B9842CCD0164B9842D1D0154B984238
:10736800D6D0154B9842DAD0144B9842DED0144B45
:107378009842E2D0704700BF106002402860024087
:107388004060024058600240706002403D000020AA
:1073980088600240400F0020A060024000003D20AD
:1073A800B860024010640240286402404064024011
:1073B800586402407064024088640240A06402403D
:1073C800B86402400368134A10B51A40CC680B68C9
:1073D80023434C6923438C692343CC6923430C6AB8
:1073E80023434C6A23438C6A23434C6B23438C6BA3
:1073F800234313430360D1E90B344269234322F04A
:107408000702134343610B6943604B6883608B68D1
:10741800C36010BD3F801CF0036819B143F001033D
:107428000360704723F00103FAE741607047406842
:1074380080B27047006800F00100704710B50A4B31
:107448000A4C0B4AA04294BF184610468B004CBF0A
:107458004368036821F0F02121F08211194214BF1A
:107468000120002010BD00BF006002400F640240F0
:107478000064024010B5084B084A094CA0428CBF72
:107488001846104621F0F02323F082138A004CBFDF
:10749800C360836010BD00BF00640240006002400A
:1074A8000F6402400B0612D5436952B143F08003C2
:1074B8008029436104D0036801F01E01194301606B
:1074C800704723F080038029436104D170478029E5
:1074D800F6D0002AEFD1036801F01E0123EA01016A
:1074E800EDE70000114B124A10B5124CA04288BFBC
:1074F8001A4621F0F02323F0C31393B1006800EA81
:10750800D12000F01E0388004CBF5068106821F09D
:10751800F02121F08211084002D0181C18BF012068
:1075280010BD436903F08003EDE700BF006402402B
:10753800006002400F640240FFF79CBF0268837935
:1075480010B5D243002B2FD01B4B19680A401A6084
:107558005A68016822EA01025A600279046802F155
:10756800804202F59E321168214311609A680168D1
:1075780022EA01029A600168DA6822EA0102DA6006
:1075880042790168102A07D19A680A439A60DA6832
:1075980001680A43DA6010BD02F1804303F59E33A7
:1075A8001A680A431A60F6E7037903F1804303F582
:1075B8009E3319680A40F5E7003C0140034B5B69BC
:1075C800034214BF01200020704700BF003C014067
:1075D800014B5861704700BF003C0140FFF7EEBF08
:1075E800014B5861704700BF003C0140F0B50022D4
:1075F800012603250B6806FA02FC3CEA03032ED198
:107608005400076805FA04F3DB431F4007600F794D
:10761800D0F800E0A74047EA0E0707600F79013F5E
:10762800012F11D887683B4083604B798768A34056
:107638003B438360436823EA0C0343608B794768C4
:1076480093409BB23B434360C36805FA04F723EABF
:107658000703C360CB79C768A3403B43C3600132CB
:10766800102AC7D1F0BD4FF6FF73036000230371E2
:1076780043718371C37170470369194214BF0120B4
:107688000020704701837047418370470AB1018326
:1076980070474183704710B501F00703C90800EB34
:1076A80081009B00016A0F249C4021EA04010162C9
:1076B800016A9A400A43026210BD000008B5144BE3
:1076C80098420BD101214FF4001000F077F9002106
:1076D8004FF40010BDE8084000F070B90D4B984217
:1076E80008D101214FF4800000F068F900214FF41F
:1076F8008000EFE7084B984208D101214FF40000C1
:1077080000F05CF900214FF40000E3E708BD00BF7A
:107718000054004000580040005C00407FB5868857
:1077280026F03F060446360468460D46360C00F03F
:10773800D1F8029A2949B2FBF1F188B20643A68032
:107748002388274E23F001031B041B0C23802B687E
:10775800B3421ED85B000130B2FBF3F39BB2042B9B
:1077680080B238BF04232084A383238843F0010315
:1077780023802388AA88698923F481630A4323F034
:10778800020313432380AB892A891343238104B05E
:1077980070BDEE884BF6FF7086421BBF192043432D
:1077A80003EB4303B2FBF3F315BF9BB2B2FBF3F356
:1077B80043F480439BB2C3F30B020AB943F00103BD
:1077C8004FF496724A434FF47A7192FBF1F2013208
:1077D80092B243F400432284C6E700BF40420F0040
:1077E800A086010022B141F0010189B201827047EF
:1077F80001F0FE01F9E7038819B143F480630380BF
:10780800704723F480631B041B0CF8E70182704760
:10781800008AC0B27047838819B143F4006383803B
:10782800704723F400631B041B0CF8E7838819B125
:1078380043F480538380704723F480531B041B0C4C
:10784800F8E7838812B119438180704723EA010160
:10785800FAE782B00023009301930B0F0190009385
:10786800009B21F07F4153B1019B14330193019B8D
:107878001B680B4214BF0120002002B07047019B17
:10788800090C1833F2E7C94389B2818270470000B6
:10789800014B1860704700BF00300040014B586032
:1078A800704700BF00300040014B9860704700BF30
:1078B80000300040024B4AF6AA221A60704700BF07
:1078C80000300040024B4CF6CC421A60704700BFB3
:1078D8000030004010B51D4A936803F00C03042BD8
:1078E8001AD0082B1AD01A4B184A03609368194902
:1078F800C3F30313CC5C0368E34043609468C4F3A8
:1079080082240C5D23FA04F484609268C2F3423244
:107918008A5CD340C36010BD0F4BE5E754685168DB
:1079280052686302C2F3881201F03F014CBF0A4B50
:10793800074BB3FBF1F35343044A5268C2F30142C5
:1079480001325200B3FBF2F3CEE700BF0038024029
:107958000024F4000400002000127A00044B1A6B83
:1079680011B110431863704722EA0000FAE700BF1C
:1079780000380240044B5A6B11B1104358637047EA
:1079880022EA0000FAE700BF00380240044B1A6CF4
:1079980011B110431864704722EA0000FAE700BFEB
:1079A80000380240044B5A6C11B1104358647047B8
:1079B80022EA0000FAE700BF00380240044B1A6AC6
:1079C80011B110431862704722EA0000FAE700BFBD
:1079D80000380240044B5A6A11B11043586270478C
:1079E80022EA0000FAE700BF003802404209012AF3
:1079F800074B07D11B6800F01F0023FA00F000F0C6
:107A080001007047022A0CBF1B6F5B6FF3E700BFD2
:107A180000380240024A536F43F08073536770473F
:107A28000038024008B5274B98420BD101214FF48A
:107A38008050FFF7CFFF00214FF48050BDE8084089
:107A4800FFF7C8BF204B98420BD101214FF480406B
:107A5800FFF7B4FF00214FF48040BDE80840FFF76E
:107A6800ADBF1A4B984208D101214FF40040FFF7EF
:107A7800A5FF00214FF40040EFE7154B984208D1CD
:107A880001214FF40050FFF7A5FF00214FF40050EB
:107A9800D4E7104B984208D101214FF48010FFF72A
:107AA80099FF00214FF48010C8E70B4B984208D18A
:107AB80001214FF40010FFF78DFF00214FF4001053
:107AC800BCE708BD0030014000380040003C0040E1
:107AD800003401400050014000540140038810B5B3
:107AE80003F441524C880B8823438C882343CC8869
:107AF80023430C8923434C8923438C892343CC8912
:107B0800234313430380838B23F400631B041B0C60
:107B180083830B8A038210BD038819B143F04003A5
:107B28000380704723F040031B041B0CF8E783888D
:107B380012B119438180704723EA0101FAE730B591
:107B4800048C24F001042404240C0484048B058C84
:107B580024F0F304240442EA0313240C1C4325F004
:107B68000A031B041B0C41F00101A4B20B4304835C
:107B7800038430BD30B5048C24F010042404240C94
:107B88000484058B048C120242EA033324F0A00219
:107B980025F4407512042D05120C2D0D42EA011131
:107BA8001D4341F01001ADB289B20583018430BD97
:107BB80008B54D4B984209D101210846FFF70AFF45
:107BC80000210120BDE80840FFF704BFB0F1804F55
:107BD80009D101210846FFF7F1FE00210120BDE887
:107BE8000840FFF7EBBE414B984206D10121022025
:107BF800FFF7E4FE00210220F1E73D4B984206D151
:107C080001210420FFF7DAFE00210420E7E7394BC1
:107C1800984206D101210820FFF7D0FE0021082054
:107C2800DDE7354B984206D101211020FFF7C6FE4B
:107C380000211020D3E7314B984206D101212020A2
:107C4800FFF7BCFE00212020C9E72D4B984206D142
:107C580001210220FFF7BEFE00210220B2E7294BD6
:107C6800984208D101214FF48030FFF7B3FE00217C
:107C78004FF48030A6E7244B984208D101214FF4F5
:107C88000030FFF7A7FE00214FF400309AE71F4BA2
:107C9800984208D101214FF48020FFF79BFE002174
:107CA8004FF480208EE71A4B984206D101214020DC
:107CB800FFF784FE0021402091E7164B984206D139
:107CC80001218020FFF77AFE0021802087E7124BF0
:107CD800984208D101214FF48070FFF76FFE002110
:107CE8004FF480707BE708BD0000014000040040AD
:107CF80000080040000C0040001000400014004044
:107D08000004014000400140004401400048014097
:107D180000180040001C0040002000401C4A038856
:107D280090429BB212D002F5806290420ED0B0F120
:107D3800804F0BD0A2F58032904207D002F58062C6
:107D4800904203D002F58062904203D14A8823F022
:107D5800700313430F4A904208D002F580629042A4
:107D68001FBF23F440730A899BB2134303804B68F7
:107D7800C3620B880385064B984203D003F58063E2
:107D8800984201D18B7A038601238382704700BF12
:107D9800000001400010004000234FF0FF32C0E90E
:107DA800003203818372704701858282704703889D
:107DB80019B143F001030380704723F001031B044A
:107DC8001B0CF8E7038C23F001031B041B0C038432
:107DD80070B5038C8288048B0D884E8824F0730458
:107DE8002404240C2C4323F002038D891B043543FF
:107DF8001B0C2B430D4DA84292B203D005F58065AC
:107E0800A8420DD1CD894E8A23F008032B438D88D3
:107E180023F004032B430D8A22F4407235432A438E
:107E2800828004838A684263038470BD0000014035
:107E3800038C23F010031B041B0C038470B5038C04
:107E48008488028B0D884E8822F4E6421204120CB4
:107E580042EA052223F020038D891B0435431B0CBD
:107E680043EA0513114DA842A4B292B29BB203D0C3
:107E780005F58065A84213D1CD894E8A23F0800389
:107E880043EA05134FF6BF751D408B8845EA031377
:107E98000D8A24F44064354344EA85049BB2A4B2B5
:107EA800848002838A688263038470BD0000014075
:107EB800038C23F480731B041B0C038470B5038CA0
:107EC8008288848B0D884E8824F073042404240C43
:107ED8002C4323F400738D891B0435431B0C43EAA0
:107EE8000523114DA84292B29BB203D005F58065D7
:107EF800A84213D1CD894E8A23F4006343EA0523AF
:107F08004FF6FF351D408B8845EA03230D8A22F47E
:107F18004052354342EA05129BB292B28280848372
:107F28008A68C263038470BD00000140038C23F497
:107F380080531B041B0C038470B5038C8488828BCC
:107F48000D884E8822F4E6421204120C42EA0522F9
:107F580023F400538D891B0435431B0C43EA053376
:107F68000A4DA842A4B292B29BB203D005F580652F
:107F7800A84205D10D8A24F4804444EA8514A4B2A9
:107F8800848082838A680264038470BD0000014093
:107F98004163704781637047C163704701647047EC
:107FA800038B23F008031B041B0C19430183704740
:107FB800038B23F400631B041B0C43EA012189B2E1
:107FC80001837047838B23F008031B041B0C1943A0
:107FD80081837047838B23F400631B041B0C43EAE3
:107FE800012189B2818370470023012203804380E5
:107FF8008280C38003817047406B7047806B7047F5
:10800800C06B7047006C7047038B23F00C031B0494
:108018001B0C0383038B194301837047038B23F4E1
:1080280040631B041B0C0383038B43EA012189B2C1
:1080380001837047838B23F00C031B041B0C838381
:10804800838B194381837047838B23F440631B041C
:108058001B0C8383838B43EA012189B28183704798
:10806800F8B50E460D88B2884988338935B9FFF7C7
:1080780066FDF188BDE8F840FFF7C6BF042D06D1BC
:10808800FFF778FDF188BDE8F840FFF7C7BF082D76
:10809800058C1CD125F480752D042D0C0584878B47
:1080A800058CBFB227F0F3073A43ADB242EA031397
:1080B80025F4206242F4807242EA01219BB289B21F
:1080C80083830184F188BDE8F840FFF7B3BF25F446
:1080D80080552D042D0C0584878B058C25F40055BF
:1080E80027F440776D043F051B036D0C3F0D45F4E5
:1080F800805543EA02233B4345EA01319BB289B2EA
:1081080083830184F188BDE8F840FFF79DBFB0F88C
:10811800443021B143F40043A0F844307047C3F31E
:108128000E03F9E7838912B119438181704723EA65
:108138000101FAE7038A194214BF012000207047A1
:10814800038A828911EA030092B203D00A4214BF5B
:10815800012000207047C94389B201827047FFF7A8
:10816800E1BF000030B5038ACA889BB223F44053AC
:108178001343038283890D4623F4B0528B880989FF
:108188000B43698922F00C020B4313438381838AD2
:10819800AA899BB223F44073134385B083820446B3
:1081A8006846FFF797FB1A4B9C4203D003F58063A0
:1081B8009C4222D10399A2891923100403FB01F3DD
:1081C800A28929684FF064054CBF49008900120450
:1081D800B3FBF1F1B1FBF5F34FEA031005FB131301
:1081E8000DD5DA003232B2FBF5F202F0070242EAAC
:1081F80000039BB2238105B030BD0299DBE71B0168
:108208003233B3FBF5F303F00F030343F1E700BF89
:1082180000100140838919B143F4005383817047EA
:1082280023F400531B041B0CF8E7C1F308018180F9
:1082380070478088C0F308007047838A12B11943D9
:108248008182704723EA0101FAE710B5C1F34214AD
:1082580001F01F03012C4FF0010101FA03F105D1D0
:108268000C3003683AB11943016010BD022C0CBFF1
:1082780010301430F5E723EA0101F5E7C94389B264
:1082880001807047C1F3421210B5012301F01F04A9
:10829800012A03FA04F30DD182891340028892B2AD
:1082A8006BB10123090A03FA01F10A4214BF184607
:1082B800002010BD022A0CBF028A828AEDE7184608
:1082C800F7E7000040F0BF60024B40F40030D86090
:1082D800704700BF00ED00E010B5C378027803B323
:1082E800154BD9684378C943C1F30221C1F104048D
:1082F800E4B2A340DCB20F2343FA01F183780B40C8
:108308000E4923430A441B01DBB282F80033037889
:108318000122580903F01F0302FA03F341F8203041
:1083280010BD5309012102F01F0201FA02F22033A5
:10833800024941F82320F3E700ED00E000E100E006
:1083480010B501F0030301F0FC0101F1804101F5D2
:108358009C319B008A680F249C4022EA04028A60B0
:108368008A6898401043886010BD08B508F093FCEF
:1083780000F064FEFDF746F908F0B4FC0121002086
:1083880008F0AAFC0121084608F0A6FCFEE7000058
:108398002DE9F0411E4E3578C5BB1E4C01214FF426
:1083A8008040FFF7E7FA01270623A57020460D2530
:1083B8002370E7706570FFF78FFF0723204623704F
:1083C8006570FFF789FF0823204623706570FFF763
:1083D80083FF0923204623704FF00A086570FFF7D2
:1083E8007BFF05232046637084F80080FFF774FF45
:1083F8001723204623706570FFF76EFF2823204659
:1084080084F801802370FFF767FF3770BDE8F081BB
:1084180090AA00208CAA0020704708B50120FFF719
:10842800DFF8FFF7F9FF08BD704708B50220FFF72E
:10843800D7F8FFF7F9FF08BD704708B50420FFF724
:10844800CFF8FFF7F9FF08BD704708B50820FFF718
:10845800C7F8FFF7F9FF08BD08B51020FFF7C0F807
:108468000AF0E2FC08BD70477047704770477047D4
:1084780008B52020FFF7B2F8012804D12020FFF723
:10848800AFF8FFF7F0FF4020FFF7A8F8012804D164
:108498004020FFF7A5F8FFF7E7FF8020FFF79EF8D9
:1084A800012804D18020FFF79BF8FFF7DEFF4FF487
:1084B8008070FFF793F8012805D14FF48070FFF71B
:1084C8008FF8FFF7D3FF4FF40070FFF787F8012804
:1084D80005D14FF40070FFF783F8FFF7C8FF08BD18
:1084E800704770477047704708B54FF48060FFF7D2
:1084F80075F8012805D14FF48060FFF771F8FFF790
:10850800EFFF4FF40060FFF769F8012805D14FF439
:108518000060FFF765F812F0FDF84FF48050FFF7A0
:108528005DF8012805D14FF48050FFF759F8FFF79F
:10853800D8FF4FF40050FFF751F8012805D14FF448
:108548000050FFF74DF80CF0B1FC4FF48040FFF7F6
:1085580045F8012805D14FF48040FFF741F8FFF7AF
:10856800C1FF4FF40040FFF739F8012805D14FF457
:108578000040FFF735F8FFF7B6FF08BD4FF440702D
:10858800FFF7A0BEFEF7FEBC70471EF0040F0CBF3D
:10859800EFF30880EFF3098000F002B8704700009D
:1085A8002DE9F84FD0E900BAD0E90298D0E904766D
:1085B800D0E906543449354805F09BF85A46344901
:1085C800324805F096F852463249304805F091F89D
:1085D8004A4631492D4805F08CF842462F492B4828
:1085E80005F087F83A462E49284805F082F83246C1
:1085F8002C49264805F07DF82A462B49234805F0E2
:1086080078F822462949214805F073F8284B29496A
:108618001A681E4805F06DF8274B28491A681B4848
:1086280005F067F8264B27491A68184805F061F8DD
:10863800254B26491A68154805F05BF8244B25494F
:108648001A68124805F055F80021084600F058F954
:108658000021012000F054F90021022000F050F917
:108668000021032000F04CF908F06AFB01210220E8
:1086780008F032FB0121042008F02EFB9321164854
:1086880004F006FFFEE700BF39F00108412F01089A
:108698004FF0010858F0010861F001086AF001087C
:1086A80073F001087DF0010886F001088FF00108D9
:1086B80038ED00E099F0010828ED00E0A4F0010889
:1086C8002CED00E0AFF0010830ED00E0BAF0010851
:1086D8003CED00E0C5F00108D0F00108002108B524
:1086E800084600F00DF90021012000F009F90021E9
:1086F800022000F005F90021032000F001F908F03C
:108708001FFB0121022008F0E7FA0121042008F0EC
:10871800E3FAA621014804F0BBFEFEE7D0F0010809
:10872800002108B5084600F0EBF80021012000F010
:10873800E7F80021022000F0E3F80021032000F010
:10874800DFF808F0FDFA0121022008F0C5FA01213E
:10875800042008F0C1FABA21014804F099FEFEE7A6
:10876800D0F00108002108B5084600F0C9F800213A
:10877800012000F0C5F80021022000F0C1F8002116
:10878800032000F0BDF808F0DBFA0121022008F010
:10879800A3FA0121042008F09FFACE21014804F031
:1087A80077FEFEE7D0F00108704709F0A7B900008E
:1087B80037B50F4D00246846FEF755FF2B681A5948
:1087C800D26800921B5969469868FEF70FFF2B681C
:1087D8001B590022198A9868FEF75DFF2B681B5900
:1087E8000434186AFFF7E4F9102CE4D103B030BD63
:1087F80014F800202DE9F0413E4F3F4D3B788AB0F8
:10880800044613B12868FFF7D3FFDFF8F0802C6027
:1088180000242B681B5901215868FFF79FF82B6823
:108828001B590121D869FFF7B1F86846FEF71BFF0D
:1088380002238DF804308DF805302B681A595269D7
:108848008DF806201A59D26800921B596946986813
:10885800FEF7CCFE2B681B591A7E198A9868FEF71A
:108868001AFF2B681A59D26A03921A590026128ED7
:10887800ADF80820ADF81060ADF80A608DF8126008
:108888001B5902A9186AFFF749FA2B68CDF814801A
:1088980007961A59928CADF820204FF48072ADF8E3
:1088A80024201B5905A9DA6B186A90472B681B59B5
:1088B80008211A6C186A90472B681B590121986A7D
:1088C800FEF7ECFC2B681B590121186A0434FFF7EA
:1088D8001EFC102C9DD12B689B590121186A043667
:1088E800FFF765FA102EF6D101233B700AB0BDE8F8
:1088F800F08100BF91AA002014F800206000010058
:1089080070B52DED028B2C4B1B7805460C46002BC1
:108918004FD0032804D9DC222849294804F080FDD7
:10892800284E326852F82520127852BB07EE904A3A
:108938009FED257A9FED258AFBEEC87A67EE877A48
:108948009FED237A27EE888A27EE877AA7EE278A73
:108958000AF0ECFE88EE000AF7EE007AB4EE670A39
:10896800F1EE10FAC8BFB0EE670ADFED1A7A20EE12
:10897800270ABCEEC00A10EE103A9CB2164B43F818
:108988002540336853F825305A6B186A1B78BDECBC
:10899800028B012B01BF45F208214C434FF6FF73B0
:1089A800B4FBF3F40ABF0919210A89B2BDE8704083
:1089B8001047BDEC028B70BD91AA00205CF3010842
:1089C80075F3010814F80020000070425839B43DCE
:1089D800388D23BA00FF7F4794AA0020064B1B78E6
:1089E80043B1064B1861064B1B681B69010A5A6B99
:1089F800186A1047704700BF91AA002094AA002067
:108A080014F8002003282DE9FF410446884617463C
:108A18001E4605DD4FF491721749184804F000FD11
:108A280001A8FFF7B9F9164DB8F1000F18D00423C3
:108A3800144A92FBF7F292B2ADF8043002922B6816
:108A480053F8243001A9186AFFF768F92B6853F81E
:108A5800243031465A6B186A904704B0BDE8F0815B
:108A68002B6853F82420D26A029253F824301B8EC4
:108A7800ADF80430E3E700BF5CF3010875F30108C3
:108A880014F80020005900012DE9F843134FDFF8CE
:108A98005480DFF8549000243B6853F824301E7843
:108AA800AEB958F8245039F8142040F275730121F2
:108AB8002846FFF7A7FF3220FCF764FF2846334615
:108AC80032463146FFF79EFF9620FCF75BFF0134E4
:108AD800042CE1D1024B1878BDE8F88314F8002083
:108AE80091AA00203CF20108B2F3010873207047F4
:108AF80000B5164C164D174E89B02368AB4221D0ED
:108B08009B686846984702460028F6D19DF80130D0
:108B18001B0956F8230080B102236946FDF772FB52
:108B28009DF801300C4A1B0952F823100029E4D0A3
:108B380052F8233068469847DFE7084A136801333C
:108B48001360EDE70A20FCF71DFFD6E73C00002084
:108B580040000020F0AA0020A8AA0020E8AA0020CF
:108B680000B50F4C0F4D89B026462368AB4213D091
:108B78000D4800234FF0FF3269460068FDF7DEFC20
:108B88000128F2D1336868465B6898470028ECD121
:108B98000A20FCF7F7FEF5E70A20FCF7F3FEE4E706
:108BA8003C0000204000002030AB00207FB5114D74
:108BB8002C78ECB9224620213C20FDF7EFFA0E4B29
:108BC8000E491860022623469622CDE902440194F4
:108BD80000960B48FCF764FB2346CDE90244CDE937
:108BE8000064962207490848FCF75AFB01232B70BA
:108BF80004B070BDECAA002030AB0020BAF3010825
:108C0800698B0008C2F30108F98A0008014B18783B
:108C1800704700BFECAA002038B5094C54F8202052
:108C2800054622B15C220749074804F0F9FB0022F7
:108C380020210120FDF7B2FA44F8250038BD00BF15
:108C4800F0AA0020CAF30108E1F3010870B50D4C41
:108C580054F8202005460E4622B96C220A490B48D2
:108C680004F0DEFB26B96D220749094804F0D8FB59
:108C7800314654F8250000234FF0FF32BDE870401C
:108C8800FDF75CBCF0AA0020CAF30108F8F301085C
:108C9800231F020808B5034B1868FDF757FDC0F1FC
:108CA8003C0008BD30AB00201028DCBF014B43F866
:108CB80020107047A8AA002010B5044620B9C32286
:108CC8000A490B4804F0ACFB23781E2B04D9C422B4
:108CD8000649084804F0A4FB0748002321461A4621
:108CE8000068BDE81040FDF78DBA00BFCAF301085F
:108CF800231F020807F4010830AB002008B5064B13
:108D080000211868FDF70AFA044B1B681B6903B1B8
:108D18009847002008BD00BF30AB00203C00002071
:108D2800034B1B68DB6803B118470120704700BF7D
:108D38003C00002070B5094C2368054613B11B6838
:108D48000020984735B12560236801201B68BDE8DD
:108D580070401847024B2360F6E700BF3C00002034
:108D68004000002038B50C4C4FF0FF330021054679
:108D780044F8203007F0B0FF084B282202FB0532E8
:108D8800002352F82310013102D044F8253038BDB1
:108D980001330A2BF5D1FAE734AB002050AB0020A1
:108DA8002DE9F74F8146FDF70FFF2C4B93F8008014
:108DB800B8F1000F4FD0C4B2294B53F82430581CD7
:108DC80049D00A2505FB0435264E274A56F8257052
:108DD80052F823B025487B1C46F825300BEBC70A10
:108DE800002319464FF0FF320068FDF7A7FBDAF8B9
:108DF8000430991C1BD05A1C1ED01BF83710204673
:108E080007F06AFFDAF8042000259AB12B460421FE
:108E180000954846FDF788FDFCF742FC00952B4677
:108E2800024601214846FDF77FFD45460AE000223B
:108E380046F82520154605E0204646F82530FFF778
:108E480091FF0025094800231A4619460068FDF7D6
:108E5800D9F9002DB0D003B0BDE8F08F49AB0020A0
:108E680034AB002050AB002044F501084CAB002087
:108E78002DE9F3411D4D2C78ACBB07F033FF234699
:108E88001B491C4C4FF0FF3044F82300002241F8E6
:108E9800220001320A2AFAD10133052B01F12801F7
:108EA800F2D1DFF86080144F144E00242346CDF829
:108EB800008000224FF47A713846FDF70DFD46F820
:108EC80024000134052CF1D1032200210120FDF7F3
:108ED80065F90B4A106020B100231A461946FDF7C0
:108EE80091F901232B7002B0BDE8F08148AB002056
:108EF80050AB002034AB002025F4010818AC00204A
:108F08004CAB0020A98D000810B5044B1C7807F065
:108F180021FF034B01221A70204010BD48AB0020EE
:108F280049AB0020F8B5174B0546002453F8242018
:108F3800914203D001340A2CF8D1F8BD124E002317
:108F480019464FF0FF323068FDF7F8FA0A2202FBA3
:108F580005420E4B0027284643F82270FFF702FF10
:108F68003B463A4639463068FDF74CF9084B53F80A
:108F78002530A342E1D1074B53F82500BDE8F8405E
:108F8800FFF70EBF44F501084CAB002050AB0020A2
:108F980034AB002018AC00204160C260704700006C
:108FA800154B70B50546002453F82420914203D090
:108FB80001340A2CF8D170BD104E002319464FF029
:108FC800FF323068FDF7BAFA0A2303FB05440C4B5D
:108FD8004FF0FF32284643F82420FFF7C3FE002352
:108FE8001A4619463068FDF70DF9064B53F8250067
:108FF800BDE87040FFF7D4BE44F501084CAB002033
:1090080050AB002018AC002008B54FF05F0383F385
:109018001188BFF36F8FBFF34F8F0649064804F0DE
:1090280068FB0121022007F057FE0121042007F008
:1090380053FEFEE76CF50108059400081FB50023F0
:1090480002220092CDE9023301934FF4967203494C
:109058000348FCF725F905B05DF804FB63F6010841
:109068009991000873B5284C2578002D4AD1012024
:10907800FDF78EF9254B4FF0FF32294618602B4635
:10908800FDF75CFA0AF05EF90DF07CFBFFF78EFD48
:1090980000F072F91E491F481F4D04F02AFB1F49B2
:1090A8001C4804F026FB1E491E4B08681E491A6816
:1090B8000E781E491E4B002E08BF29461B68CDE9B5
:1090C80000011C49134804F014FB1B4B1B4AB3F95D
:1090D800003001931A4B1B491B6800931A4B126806
:1090E8001B680C4804F005FB11F086FF01F078F8C6
:1090F8000EF0E4FAFFF7BCFE0AF0ECFA0DF06AFF96
:109108000123237002B070BD2DAC002018F8002098
:10911800D1F5010805940008CBF50108F4F501081C
:109128007C0100207401002061FC0108C2F50108DF
:10913800780100201BF60108227AFF1F187AFF1F0A
:10914800107AFF1F35F60108147AFF1F38B5084B4F
:109158001C78FFF7D9FE05460AF0E2FA28400440D9
:1091680001F04AF804400DF05BFF204038BD00BF15
:109178002DAC002008B5054800231A46194600689A
:10918800FDF740F8BDE8084009F01EBF18F80020B8
:1091980038B507F0A7FD0121002007F09DFDFFF776
:1091A80061FF00F0A5F801F05BF802F05FFA0DF03E
:1091B8004FFF0DF0A1F90DF005FC0AF0D1FFFFF704
:1091C800C5FF044611F0C6FF044000F0ADF8E4B254
:1091D800044001F0AFF8044002F080FA04400DF0BA
:1091E80055FF04400DF0AEF904400DF00DFC0440AD
:1091F80009F0D4FE1F4DE8B1E4B101242C70FFF74B
:10920800B9FF06200DF0A4F91B490420FFF78AFED8
:109218001A492046FFF786FEFDF7EEFD184902467B
:10922800184804F066FA00F0EFFF4FF0FF30FCF743
:10923800A9FBFAE700232B70FFF788FF90B10F4CCA
:1092480021460420FFF76EFE4FF4FA60FCF79AFB04
:109258002B78002BF4D00C490A4804F04AFAFFF79F
:1092680089FFD9E707F03EFD0121042007F034FD0E
:10927800D2E700BF2EAC002034F40108CCF401087A
:109288007EF60108059400086AF6010810B50B4C33
:1092980023787BB10A4C002319464FF0FF3220682F
:1092A800FDF74CF9002320681A461946BDE810401E
:1092B800FCF7A8BF0220FCF765FBE9E72DAC00200E
:1092C80018F80020014B1870704700BF2CAC002024
:1092D80008B5FCF7E5F9054A1368C31A502B02D9FB
:1092E8001060FEF7E7FA30BF08BD00BF30AC0020C1
:1092F80010B50C4C23789BB909F0BAFB0AF0A6FC10
:109308000AF022FDFFF716FD00F0E2F80DF022F852
:1093180000F034FE00F00EF901F0E8FA01232370A2
:1093280010BD00BF34AC002038B50B4B1C780AF0D8
:1093380059FC0546FFF76AFC2840044000F0D8F8BD
:1093480004400DF017F8044000F034F8044000F031
:109358007FF9204038BD00BF34AC002010B5054C63
:109368002046FFF7A9FC002301280CBF23701846EC
:1093780010BD00BF1CF8002038B50B4D2C788CB9F7
:109388000A4B0322214601201C705C70FCF706FF83
:10939800074A106020B1234622462146FCF732FFD7
:1093A80001232B7038BD00BF35AC00201CF800200D
:1093B80038AC0020014B1878704700BF35AC00204E
:1093C80037B50C4C054601AA00212068FDF776F94F
:1093D80001280CD1084A206813781D2B9EBFD1188C
:1093E80001338D7001A998BF1370FDF755F8284611
:1093F80003B030BD38AC00201CF80020F8B5214A75
:10940800214B12785B680646002A38D0C3F308035C
:109418001BB1BDE8F840FFF7D3BF1C4D4FF0FF323A
:1094280019462868FDF78AF8012826D1184C2378B0
:109438001D2B13D9FFF72EFC01280CD121781548D4
:1094480000235A18002A06DDC71822443F7997706E
:10945800013B5A1DF5D1FFF781FF08E0E2180133FF
:10946800DBB20A2E96702370E4D01E2BE2D00023C4
:109478001A4619462868FCF7C5FEF0B2F8BD104632
:10948800FCE700BF35AC002000ED00E038AC002060
:109498001CF8002098F6010810B5437813F0030370
:1094A80004460ED0012B00D010BD03461E2203F83F
:1094B800022B0021184615F093F9044915F098F984
:1094C8002046BDE81040FFF7F7BB00BF9DF6010836
:1094D80010B5054C23782BB904490F20FFF7E4FB9E
:1094E8000123237010BD00BF3CAC0020A1940008EC
:1094F800014B1878704700BF3CAC002070B50B4B8F
:1095080019680B4B00221C680C251346994203DC92
:109518004FF0FF33184670BD05FB03F6A657002E23
:1095280002DB8242F6D001320133EFE76CAC002057
:1095380060AC00202DE9F04F374B1C7889B09B4672
:1095480064BB364A364D374B2A609B1A364A374930
:10955800374EDFF8F89034609B1053430B60274672
:10956800059109F1070A059B2868D3F800C0BC4596
:1095780017DC304B196800220C25944543DC04B1F4
:10958800196000230124CDE9023301930094962247
:1095980029492A48FBF784FE8BF8004009B0BDE84A
:1095A800F08F3368C9F802300C2303FB07F800EB8F
:1095B800080210F8081089F80610506808B3FBF77D
:1095C80083FD182804D962221D491E4803F028FF8C
:1095D8002A6802EB08030793596806910846FBF7C7
:1095E80073FD06990246504615F0D6F8079B586851
:1095F800FBF76AFD411D144804F088F80137306014
:10960800B1E70521F7E705FB02F601328657002E80
:10961800A4BF01310124B0E73DAC00201C3602088C
:1096280060AC0020343C0208ABAAAAAA6CAC0020AB
:1096380068AC002064AC0020EAF6010885970008B1
:10964800B0F60108C8F6010840AC00203EAC002086
:10965800014B1878704700BF3DAC00202DE9F0475A
:10966800034618B101282DD0BDE8F087394A3A4F92
:109678003A4CD2F800C03A4E3A68E07804321946BB
:109688004FF00C0EB246614507DB202363700023C0
:10969800A37001232370314857E012F8045C15F0D9
:1096A800800F0EFB01F8A2F1040905D0ED0707D5DC
:1096B800166801310C32E6E7984210D00133F8E71A
:1096C8005646F6E725488370264B1B68C370264B21
:1096D800202242701B6843600622027035E0202376
:1096E80063700023E070A37099F80030237130464E
:1096F800FBF7EAFC0546D9F80400FBF7E5FC28442B
:109708000530C0B21E28207004D9D622174918483F
:1097180003F086FE3046FBF7D7FC3146421C15485D
:10972800154D15F039F83046FBF7CEFC3B689844E8
:109738000446D8F804603046FBF7C6FC0434421CE3
:109748003146281915F028F8A81EBDE8F047FFF79C
:10975800B3BA00BF6CAC002060AC00203EAC002067
:109768000223020864AC002068AC0020B0F60108AF
:10977800F0F6010843AC002040AC00202DE9F74F7B
:109788000220FFF749FA7B4CDFF8F891794902206B
:10979800FFF75CFA6678A57816F0030603D1284629
:1097A800FFF75CFFF2E7012E32D12846FFF7A6FE4D
:1097B800002806DAFF23A3700223E5702371032330
:1097C80011E00C2358436C4B1A681318125C9B6801
:1097D80002F00302022A0FD0032A12D0012A07D06E
:1097E8001B78E370022323702046FFF765FACDE764
:1097F8001B88A4F80330E2E71B68C4F8033005238C
:10980800F1E75E491A680A605A684A600923EAE77C
:10981800022E2AD12846FFF771FE002804DAFF231A
:10982800A370E5702671CAE70C235843524B1B6896
:109838001A181B5C5906A9D403F00303022B92687B
:1098480009D0032B0BD0012B15BFE378B4F80330F4
:1098580013701380C8E7D4F803301360C4E7474B8C
:1098680019685B68C2E90013BEE7002D8ED12B464C
:10987800E218927802B9013501331E2BF8D1012D77
:1098880074DD3E48FBF720FC061D2644054630469D
:10989800FBF71AFC3A4B00901B680193364B1F6884
:1098A800CA464FF0000B019B9B4515DB0225334848
:1098B800FBF70AFC07463046FBF706FC274407443B
:1098C8002E487D71FBF700FC05463046FBF7FCFB94
:1098D80028440430207087E797F8008018F0800F3C
:1098E80008D018F0010F1AD0D7F804A00BF1010B1B
:1098F8000C37D8E731467868FBF7DCFB0028F5D150
:109908001E495046FBF7D6FB0028EFD1009B2B449D
:109918009A46E3185B79434503D01625C7E7CA463C
:10992800E4E713F040051FD103F003030AF1040232
:10993800022B0AF1060A04EB0A00B9680BD0032BC4
:109948000DD0012B17BFA31834F80A309B780B7081
:1099580008BF0B80ABE754F80A300B60A7E7D0E9E3
:109968000023C1E90023A2E70D25A0E703B0BDE865
:10997800F08F00BF3EAC002060AC002041AC00205E
:109988006CAC0020022302081C4B2DE9F341002592
:109998000C211F4601FB05F2D458844229D0013519
:1099A800102DF7D1022002B0BDE8F0812268A36033
:1099B8001446002CFAD10C2606FB0576706888B18F
:1099C8004FF0FF38234622460321CDF80080FCF7EC
:1099D800ABFFCDF800802346224605217068FCF7CE
:1099E800A3FF74600C235D434FF0FF337B510020CD
:1099F800D9E713449C680023DBE700BF74AC002060
:109A08000D4B37B500220C2404FB02F1CD588542DA
:109A180005D00132102AF7D1022003B030BD581802
:109A28004FF0FF33009300231A4603214068FCF7E8
:109A38007BFF0020F1E700BF74AC0020F8B5134BA2
:109A4800134D1B7873B100240C2707FB04F6A859A3
:109A5800431C04D0FFF7D4FFA859FFF795FF013442
:109A6800102CF2D100230C204FF0FF3100FB03F241
:109A78000133102BA950F9D1002306481946C21802
:109A88000C33B3F5C06F9160F9D1F8BD70AC00200C
:109A980074AC002038AD002008B5FDF795F8BDE896
:109AA80008400146014800F0C5BB00BF559E0008AC
:109AB8002DE9F04F85B0444C039100230C2101FBA4
:109AC80003F2155985426CD00133102BF7D10220CF
