:020000040800F2
:10400000FFFF012039D40008CD850008CF850008C6
:10401000298700086D870008B187000800000000AC
:10402000000000000000000000000000A16E000879
:10403000F587000800000000356F0008C9850008FA
:104040007DD400087DD400087DD400087DD400080C
:104050007DD400087DD400085F8400086F840008C8
:104060007F8400088F8400089D840008892101084E
:104070007DD40008AD2101087DD400087DD400085E
:10408000F78700087DD400087DD400087DD400089F
:104090007DD400087DD400087DD40008B5840008D4
:1040A0007DD400087DD400087DD400087DD40008AC
:1040B0007DD400087DD400087DD400087D2101084E
:1040C000712101087DD400087DD400087DD400084A
:1040D0007DD400087DD400087DD40008712C01082F
:1040E0002D8500087DD400087DD400087DD400080B
:1040F0007DD40008452E01087DD400087DD4000839
:104100007DD400087DD400087DD400087DD400084B
:104110007DD400087DD400087DD40008853F0108C7
:104120007D7701087DD400087DD400087DD4000887
:104130007DD400087DD400087DD400087DD400081B
:104140007DD400087DD400087DD400087DE10008FE
:10415000117701087DD400082D2B0108292B0108B7
:10416000A1210108952101087DD400087DD4000813
:104170007DD400087DD400087DD400087DD40008DB
:084180007DD400087DD4000885
:1041880081F0004102E000BF83F0004330B54FEA00
:1041980041044FEA430594EA050F08BF90EA020F6D
:1041A8001FBF54EA000C55EA020C7FEA645C7FEA00
:1041B800655C00F0E2804FEA5454D4EB5555B8BF23
:1041C8006D420CDD2C4480EA020281EA030382EA94
:1041D800000083EA010180EA020281EA0303362D26
:1041E80088BF30BD11F0004F4FEA01314FF4801CF9
:1041F8004CEA113102D0404261EB410113F0004F0B
:104208004FEA03334CEA133302D0524263EB4303C1
:1042180094EA050F00F0A780A4F10104D5F1200E5F
:104228000DDB02FA0EFC22FA05F2801841F10001BA
:1042380003FA0EF2801843FA05F359410EE0A5F18E
:1042480020050EF1200E012A03FA0EFC28BF4CF0BF
:10425800020C43FA05F3C01851EBE37101F0004575
:1042680007D54FF0000EDCF1000C7EEB00006EEB82
:104278000101B1F5801F1BD3B1F5001F0CD349080C
:104288005FEA30004FEA3C0C04F101044FEA445263
:1042980012F5800F80F09A80BCF1004F08BF5FEAEA
:1042A800500C50F1000041EB045141EA050130BDCA
:1042B8005FEA4C0C404141EB010111F4801FA4F16D
:1042C8000104E9D191F0000F04BF01460020B1FAC2
:1042D80081F308BF2033A3F10B03B3F120020CDAFA
:1042E8000C3208DD02F1140CC2F10C0201FA0CF0D8
:1042F80021FA02F10CE002F11402D8BFC2F1200C3D
:1043080001FA02F120FA0CFCDCBF41EA0C019040F2
:10431800E41AA2BF01EB0451294330BD6FEA04043B
:104328001F3C1CDA0C340EDC04F11404C4F1200226
:1043380020FA04F001FA02F340EA030021FA04F338
:1043480045EA030130BDC4F10C04C4F1200220FA8F
:1043580002F001FA04F340EA0300294630BD21FACD
:1043680004F0294630BD94F0000F83F4801306BF93
:1043780081F480110134013D4EE77FEA645C18BF87
:104388007FEA655C29D094EA050F08BF90EA020F1E
:1043980005D054EA000C04BF1946104630BD91EA16
:1043A800030F1EBF0021002030BD5FEA545C05D119
:1043B8004000494128BF41F0004130BD14F5800458
:1043C8003CBF01F5801130BD01F0004545F0FE41CC
:1043D80041F470014FF0000030BD7FEA645C1ABF01
:1043E800194610467FEA655C1CBF0B46024650EA38
:1043F800013406BF52EA033591EA030F41F4002164
:1044080030BD00BF90F0000F04BF0021704730B5E9
:104418004FF4806404F132044FF000054FF00001BE
:1044280050E700BF90F0000F04BF0021704730B57F
:104438004FF4806404F1320410F0004548BF404254
:104448004FF000013EE700BF42004FEAE2014FEAA9
:1044580031014FEA02701FBF12F07F4393F07F4F84
:1044680081F06051704792F0000F14BF93F07F4FB6
:10447800704730B54FF4607401F0004521F00041F9
:1044880020E700BF50EA010208BF704730B54FF07F
:1044980000050AE050EA010208BF704730B511F084
:1044A800004502D5404261EB41014FF4806404F1BC
:1044B80032045FEA915C3FF4DCAE4FF003025FEA3E
:1044C800DC0C18BF03325FEADC0C18BF033202EBC6
:1044D800DC02C2F1200300FA03FC20FA02F001FA20
:1044E80003FE40EA0E0021FA02F11444C1E600BFBF
:1044F80070B54FF0FF0C4CF4E06C1CEA11541DBF72
:104508001CEA135594EA0C0F95EA0C0F00F0DEF83C
:104518002C4481EA030621EA4C5123EA4C5350EA21
:10452800013518BF52EA033541F4801143F4801372
:1045380038D0A0FB02CE4FF00005E1FB02E506F003
:104548000042E0FB03E54FF00006E1FB03569CF058
:10455800000F18BF4EF0010EA4F1FF04B6F5007F5E
:1045680064F5407404D25FEA4E0E6D4146EB0606D0
:1045780042EAC62141EA55514FEAC52040EA5E5059
:104588004FEACE2EB4F1FD0C88BFBCF5E06F1ED803
:10459800BEF1004F08BF5FEA500E50F1000041EB3A
:1045A800045170BD06F0004646EA010140EA0200E7
:1045B80081EA0301B4EB5C04C2BFD4EB0C0541EA09
:1045C800045170BD41F480114FF0000E013C00F31E
:1045D800AB8014F1360FDEBF002001F0004170BD42
:1045E800C4F10004203C35DA0C341BDC04F114045B
:1045F800C4F1200500FA05F320FA04F001FA05F2E7
:1046080040EA020001F0004221F0004110EBD370B3
:1046180021FA04F642EB06015EEA430E08BF20EADF
:10462800D37070BDC4F10C04C4F1200500FA04F382
:1046380020FA05F001FA04F240EA020001F0004114
:1046480010EBD37041F100015EEA430E08BF20EA87
:10465800D37070BDC4F1200500FA05F24EEA020ECF
:1046680020FA04F301FA05F243EA020321FA04F0FE
:1046780001F0004121FA04F220EA020000EBD370B5
:104688005EEA430E08BF20EAD37070BD94F0000FB5
:104698000FD101F00046400041EB010111F4801FE9
:1046A80008BF013CF7D041EA060195F0000F18BF9A
:1046B800704703F00046520043EB030313F4801FD6
:1046C80008BF013DF7D043EA0603704794EA0C0F90
:1046D8000CEA135518BF95EA0C0F0CD050EA4106A6
:1046E80018BF52EA4306D1D181EA030101F0004123
:1046F8004FF0000070BD50EA410606BF104619464B
:1047080052EA430619D094EA0C0F02D150EA013656
:1047180013D195EA0C0F05D152EA03361CBF104697
:1047280019460AD181EA030101F0004141F0FE4136
:1047380041F470014FF0000070BD41F0FE4141F4BA
:10474800780170BD70B54FF0FF0C4CF4E06C1CEABA
:1047580011541DBF1CEA135594EA0C0F95EA0C0F6F
:1047680000F0A7F8A4EB050481EA030E52EA03352A
:104778004FEA013100F088804FEA03334FF080554B
:1047880045EA131343EA12634FEA022245EA111578
:1047980045EA10654FEA00260EF000419D4208BF29
:1047A800964244F1FD0404F5407402D25B084FEAD6
:1047B8003202B61A65EB03055B084FEA32024FF482
:1047C80080104FF4002CB6EB020E75EB030E22BFDF
:1047D800B61A754640EA0C005B084FEA3202B6EB9F
:1047E800020E75EB030E22BFB61A754640EA5C004E
:1047F8005B084FEA3202B6EB020E75EB030E22BFDE
:10480800B61A754640EA9C005B084FEA3202B6EBDE
:10481800020E75EB030E22BFB61A754640EADC009D
:1048280055EA060E18D04FEA051545EA16754FEAFF
:1048380006164FEAC30343EA52734FEAC2025FEA1D
:104848001C1CC0D111F4801F0BD141EA00014FF0AC
:1048580000004FF0004CB6E711F4801F04BF01437D
:104868000020B4F1FD0C88BFBCF5E06F3FF6AFAE99
:10487800B5EB030C04BFB6EB020C5FEA500C50F129
:10488800000041EB045170BD0EF0004E4EEA1131AC
:1048980014EB5C04C2BFD4EB0C0541EA045170BDB3
:1048A80041F480114FF0000E013C90E645EA060EF7
:1048B8008DE60CEA135594EA0C0F08BF95EA0C0F25
:1048C8003FF43BAF94EA0C0F0AD150EA01347FF46D
:1048D80034AF95EA0C0F7FF425AF104619462CE744
:1048E80095EA0C0F06D152EA03353FF4FDAE1046A7
:1048F800194622E750EA410618BF52EA43067FF4F8
:10490800C5AE50EA41047FF40DAF52EA43057FF487
:10491800EBAE12E74FF0FF3C06E000BF4FF0010C92
:1049280002E000BF4FF0010C4DF804CD4FEA410CF6
:104938007FEA6C5C4FEA430C18BF7FEA6C5C1BD0C3
:1049480001B050EA410C0CBF52EA430C91EA030F44
:1049580002BF90EA020F0020704710F1000F91EAA1
:10496800030F58BF994208BF90422CBFD8176FEA6F
:10497800E37040F0010070474FEA410C7FEA6C5C3D
:1049880002D150EA013C07D14FEA430C7FEA6C5C44
:10499800D6D152EA033CD3D05DF8040B704700BF70
:1049A8008446104662468C461946634600E000BFBE
:1049B80001B5FFF7B7FF002848BF10F1000F01BD90
:1049C8004DF808EDFFF7F4FF0CBF012000205DF85B
:1049D80008FB00BF4DF808EDFFF7EAFF34BF0120E0
:1049E80000205DF808FB00BF4DF808EDFFF7E0FF79
:1049F80094BF012000205DF808FB00BF4DF808EDCA
:104A0800FFF7CEFF94BF012000205DF808FB00BF30
:104A18004DF808EDFFF7C4FF34BF012000205DF812
:104A280008FB00BF4FEA410C7FEA6C5C02D150EAF8
:104A3800013C0AD14FEA430C7FEA6C5C02D152EA8E
:104A4800033C02D14FF0000070474FF0010070475F
:104A58004FEA4102B2F1E04324BFB3F5001CDCF198
:104A6800FE5C0DD901F0004C4FEAC0024CEA5070D0
:104A7800B2F1004F40EB830008BF20F001007047FF
:104A880011F0804F21D113F13872BCBF01F0004002
:104A9800704741F480114FEA5252C2F11802C2F134
:104AA800200C10FA0CF320FA02F018BF40F00100B5
:104AB8004FEAC1234FEAD32303FA0CFC40EA0C0067
:104AC80023FA02F34FEA4303CCE77FEA625307D1A4
:104AD80050EA01331EBF4FF0FE4040F440007047DB
:104AE80001F0004040F0FE4040F40000704700BF75
:104AF80080F0004002E000BF81F0004142001FBF8B
:104B08005FEA410392EA030F7FEA226C7FEA236C93
:104B18006AD04FEA1262D2EB1363C1BFD218414088
:104B280048404140B8BF5B42192B88BF704710F01E
:104B3800004F40F4000020F07F4018BF404211F0C1
:104B4800004F41F4000121F07F4118BF494292EA29
:104B5800030F3FD0A2F1010241FA03FC10EB0C0055
:104B6800C3F1200301FA03F100F0004302D54942E2
:104B780060EB4000B0F5000F13D3B0F1807F06D38F
:104B880040084FEA310102F10102FE2A51D2B1F187
:104B9800004F40EBC25008BF20F0010040EA03007C
:104BA8007047490040EB000010F4000FA2F1010229
:104BB800EDD1B0FA80FCACF1080CB2EB0C0200FAB3
:104BC8000CF0AABF00EBC25052421843BCBFD04001
:104BD8001843704792F0000F81F4000106BF80F47B
:104BE80000000132013BB5E74FEA41037FEA226C3E
:104BF80018BF7FEA236C21D092EA030F04D092F009
:104C0800000F08BF0846704790EA010F1CBF00203C
:104C1800704712F07F4F04D1400028BF40F0004099
:104C2800704712F100723CBF00F50000704700F0B9
:104C3800004343F0FE4040F4000070477FEA2262E0
:104C480016BF08467FEA23630146420206BF5FEAB1
:104C5800412390EA010F40F4800070474FF00003B1
:104C680004E000BF10F0004348BF40425FEA000C78
:104C780008BF704743F0964301464FF000001CE020
:104C880050EA010208BF70474FF000030AE000BF76
:104C980050EA010208BF704711F0004302D54042B4
:104CA80061EB41015FEA010C02BF84460146002026
:104CB80043F0B64308BFA3F18053A3F50003BCFA41
:104CC8008CF2083AA3EBC25310DB01FA02FC6344EE
:104CD80000FA02FCC2F12002BCF1004F20FA02F2F5
:104CE80043EB020008BF20F00100704702F12002E8
:104CF80001FA02FCC2F1200250EA4C0021FA02F249
:104D080043EB020008BF20EADC7070477BB972B938
:104D18000029BEBF00204FF0004106E008BF002870
:104D28001CBF6FF000414FF0FF3000F0C5B9ADF186
:104D3800080C6DE904CE002909DB002B1ADB00F012
:104D48004DF8DDF804E0DDE9022304B07047404285
:104D580061EB4101002B1BDB00F040F8DDF804E0BB
:104D6800DDE9022304B0404261EB4101524263EBAA
:104D780043037047524263EB430300F02FF8DDF81A
:104D880004E0DDE9022304B0404261EB41017047D1
:104D9800524263EB430300F021F8DDF804E0DDE95B
:104DA800022304B0524263EB4303704753B94AB934
:104DB800002908BF00281CBF4FF0FF314FF0FF301B
:104DC80000F07AB9ADF1080C6DE904CE00F006F8F0
:104DD800DDF804E0DDE9022304B070472DE9F0476F
:104DE8008C460D460446089E002B51D18A42174630
:104DF8006DD9B2FA82FEBEF1000F0BD0CEF1200CB5
:104E080001FA0EF520FA0CFC02FA0EF74CEA050C32
:104E180000FA0EF44FEA174A250CBCFBFAF81FFA01
:104E280087F90AFB18CC45EA0C4508FB09F3AB42A5
:104E38000AD9ED1908F1FF3280F02381AB4240F224
:104E48002081A8F102083D44ED1AA4B2B5FBFAF09E
:104E58000AFB105544EA054400FB09F9A14509D9A4
:104E6800E41900F1FF3380F00A81A14540F207817F
:104E780002383C44A4EB090440EA08400021002E13
:104E880061D024FA0EF4002334607360BDE8F08723
:104E98008B4207D9002E54D0002186E8210008460D
:104EA800BDE8F087B3FA83F1002940F08E80AB4269
:104EB80002D3824200F2FA80841A65EB03050120CE
:104EC800AC46002E3FD086E81010BDE8F08712B936
:104ED8000127B7FBF2F7B7FA87FEBEF1000F34D10E
:104EE800EB1B3A0C1FFA87FC0121B3FBF2F8250CE7
:104EF80002FB183345EA03450CFB08F3AB4207D91C
:104F0800ED1908F1FF3002D2AB4200F2D1808046A1
:104F1800ED1AA3B2B5FBF2F002FB105543EA0544C3
:104F28000CFB00FCA44507D9E41900F1FF3302D2B9
:104F3800A44500F2B8801846A4EB0C0440EA0840E7
:104F48009DE731463046BDE8F087CEF1200405FAEA
:104F58000EF307FA0EF720FA04F83A0C25FA04F4CF
:104F680048EA0308B4FBF2F14FEA184502FB114482
:104F78001FFA87FC45EA044501FB0CF3AB4200FA33
:104F88000EF409D9ED1901F1FF3080F08A80AB42A7
:104F980040F2878002393D44EB1A1FFA88F5B3FBCB
:104FA800F2F002FB103345EA034500FB0CF3AB4279
:104FB80007D9ED1900F1FF386FD2AB426DD902382D
:104FC8003D44EB1A40EA01418FE7C1F1200722FA7C
:104FD80007F88B4005FA01F448EA030320FA07FEB4
:104FE8004FEA134CFD404EEA040EB5FBFCF94FEABC
:104FF8001E440CFB19551FFA83F844EA054509FBC2
:1050080008F4AC4202FA01F200FA01FA08D9ED18E4
:1050180009F1FF3043D2AC4241D9A9F102091D443C
:105028002D1B1FFA8EFEB5FBFCF00CFB10554EEA4B
:10503800054400FB08F8A04507D9E41800F1FF353E
:1050480029D2A04527D902381C4440EA0940A4EBDC
:105058000804A0FB02894C45C6464D4615D312D01C
:1050680056B1BAEB0E0364EB050404FA07F7CB401C
:105078001F43CC40376074600021BDE8F0871846B4
:10508800F8E69046E0E6C245EAD2B8EB020E69EBD4
:1050980003050138E4E72846D7E7404691E781460B
:1050A800BEE7014678E702383C4445E7084608E78A
:1050B800A8F102083D442BE7704700BF10F8012B08
:1050C80011F8013B012A28BF9A42F7D0D01A70473D
:1050D800034613F8012B002AFBD1181A0138704730
:1050E80000F1080343604FF0FF32C36003610023FF
:1050F80082600360704700230361704743684B6018
:105108009A688A609A6851609960086103680133F7
:10511800036070470A68531C30B50AD103695A689E
:105128004A6091608B6059600861036801330360CD
:1051380030BD00F108035C682568AA42EFD3234616
:10514800F9E7426881680369916082684168516043
:105158005A68904204BF82685A6000220261186847
:105168000138186070470000064A13681968064B32
:1051780019B94FF0FF321A6070471268D268D268C6
:105188005268F8E7D40C00209C0D002010B50446A6
:1051980028B940F266520949094807F05BFF62697D
:1051A800084B9A4201D0002010BDA06A064B9842D5
:1051B800F9D0B0FA80F0400910BD00BF12EF010825
:1051C8002BEF0108BC0D0020A40D002010B50E4BDC
:1051D8001A6850600D4A12689042044607D20C4A79
:1051E80010681968BDE810400431FFF793BF094AF9
:1051F800106819680431FFF78DFF074B1A6894424D
:1052080038BF1C6010BD00BFD00C0020E40D00208A
:10521800D80C0020D40C00209C0D00202DE9F04370
:105228000D68002D3DD04B685C684C6001F10807A3
:10523800BC4204BFCB684B604B680025D3F80CC058
:105248004FF002080346486840684860874204BF38
:10525800C86848604868C4681C6004F13400586035
:10526800206C98601A73E06A1861032A03D1A06A57
:1052780008B183F80C80A06C5861606D9861D4F80F
:1052880030E07646A6EB0E0016F8019BB9F1A50FA3
:10529800F8D08008A445988305F1010503F120039F
:1052A800D1D12846BDE8F0832DE9F84F0A9F0C9D1F
:1052B800884616469B46824628B940F22D22624906
:1052C800624807F0C7FE052F05D940F22E225E4935
:1052D8005F4807F0BFFE35B9B00001F0B7FC0546DE
:1052E800002800F0A380602001F0B0FC04460028EC
:1052F80000F09980B60032460563A521284619F0CA
:1053080016FD236B043E1E4426F0070608F1FF3302
:1053180004F1340208F10908597802F8011B13F85E
:10532800011F09B14345F7D1052F4FF00005B946D4
:1053380004F1040828BF4FF00509404684F83D50A1
:10534800C4F82C90C4F84890E564FFF7D4FE04F143
:105358001800FFF7D0FEC9F10603A361A565246113
:1053680064622565656584F85C505A465146304646
:1053780001F080FD0B9B206003B11C6001F09CFDD7
:10538800344B354D1A68DFF8FC9001321A602E68EC
:10539800002E4ED12C601B68012B1DD109EB060095
:1053A8001436FFF79DFE782EF8D1DFF8DCA02B4EDF
:1053B8005046FFF795FE3046FFF792FE2848FFF764
:1053C8008FFE2848FFF78CFE2748FFF789FE274BFA
:1053D800C3F800A0264B1E60264A274913680868B0
:1053E80001331360E26A2364012404FA02F30343DD
:1053F80014200B6000FB02904146FFF77FFE01F08E
:105408007DFD1E4B1B685BB12B68DB6A9F4207D989
:105418001B4B4FF080521A60BFF34F8FBFF36F8F53
:105428002046BDE8F88F284601F0AAFC4FF0FF346B
:10543800F6E7124B1B68002BCED12B68DB6A9F4224
:1054480028BF2C60C8E700BF12EF0108FCEF010875
:1054580007F00108580D0020D00C0020840D002012
:10546800A40D0020D00D0020BC0D0020D40C00207D
:10547800D80C0020640D00206C0D0020B80D002011
:1054880004ED00E0DC0C0020700D002038B5044667
:1054980001F012FD0CB9254B1C68251D2846FFF7A5
:1054A80050FE60B9E06A224B142141435B5833B97E
:1054B800204901220B68824023EA02030B60A36A99
:1054C8001BB104F11800FFF73CFE29461A48FFF704
:1054D80015FE1A4A136801331360194A1368013319
:1054E800136001F00BFD174B1B68EBB10F4B1B68EA
:1054F8009C4211D1144B1B682BB140F21E32134948
:10550800134807F0A7FD134B4FF080521A60BFF302
:105518004F8FBFF36F8F38BD01F0CEFCFFF724FE2D
:10552800BDE8384001F0EABC38BD00BFD00C00200F
:10553800DC0C00206C0D0020D00D0020680D002030
:10554800640D0020B80D0020600D002012EF010846
:105558005CEF010804ED00E0F8B5044688BB4FF4A1
:10556800B2621A491A48BDE8F84007F073BD01F065
:10557800A3FC2046FFF70AFE012805461DD1271D7A
:105588003846FFF7DEFD134AE36A11689D400D4374
:105598001560114A142000FB03203946FFF7AEFDC1
:1055A8003368E26ADB6A9A4207D30C4B4FF08052A9
:1055B8001A60BFF34F8FBFF36F8FBDE8F84001F05B
:1055C8009DBC074E33689842D1D1F8BD12EF01084F
:1055D80082EF01086C0D0020DC0C002004ED00E0D7
:1055E800D00C00201FB50024194B0193039402949A
:1055F80000942346962217491748FFF755FE0128BD
:105608001AD101F03FF9012816D14FF05F0383F357
:105618001188BFF36F8FBFF34F8F104B4FF0FF32DE
:105628001A600F4B18600F4B1C600EF043FC04B05F
:10563800BDE8104001F0CEBC40B90B490B4840F220
:10564800516204B0BDE8104007F004BD04B010BDBD
:10565800980D00209AEF0108F95900089C0D0020C8
:10566800B80D0020E40D002012EF01089FEF01089B
:10567800024A136801331360704700BF600D0020B1
:10568800014B1868704700BFE40D00202DE9F84F62
:105698003D4B3E4A196811603D4A1268002A50D1B4
:1056A8001A6801321A601D68A5B93A4C23681B684C
:1056B8002BB140F2AA723849384807F0CBFC384B76
:1056C8002268196821601A60364A1368013313602A
:1056D800FFF74AFD344C354F23689D424FF0000BCD
:1056E8003ED3DFF8B080DFF8D490D8F800201268F5
:1056F80072BB4FF0FF32226032E006F1040A5046D6
:10570800FFF71FFDB16A19B106F11800FFF719FD7F
:10571800F06AD9F80030012202FA00F11943244B4B
:10572800C9F800104FF0140E51460EFB0030FFF779
:10573800E5FC3868F16AC26A914228BF4FF0010B54
:10574800D3E71C4A1368013313604FF0000B11E0D4
:10575800D8F80020D268D66871688D42CDD2216011
:105768003A68134BD16A14224A439A58022A28BF2E
:105778004FF0010B104A1268002A18BF4FF0010BB6
:105788005846BDE8F88F00BFE40D0020080000E08F
:10579800600D0020D40C002012EF01086AF0010807
:1057A800D80C0020A00D00209C0D0020D00C00205B
:1057B800DC0C00205C0D0020E80D00206C0D0020A2
:1057C8002DE9F8432F4C23682BB940F28E622E49FD
:1057D8002E4807F03FFC01F06FFB2368013B236074
:1057E80023682BB1002401F089FB2046BDE8F8832B
:1057F800274B1B68002BF5D0264D274E1FE0EB6882
:10580800DC6804F1040904F11800FFF79AFC484623
:10581800FFF797FCE26A3168012707FA02F31420C0
:105828000B4300FB028049463360FFF767FC1B4BC4
:10583800E26A1B68DB6A9A4203D3194B1F60DFF8E0
:105848006C802B68002BDAD1164C2368BBB9144B3B
:105858001C68012CC6D1144B4FF080521A60BFF35C
:105868004F8FBFF36F8FBEE7FFF710FF00B12E60B9
:105878002368013B23602368002BF5D1E7E7084D37
:105888000126F8E7600D002012EF0108CFF00108AB
:10589800580D0020A40D00206C0D0020D00C002015
:1058A800E80D00205C0D002004ED00E0DC0C002079
:1058B80038B50C46054628B940F23F3223492448FA
:1058C80007F0C8FB2CB94FF450722049214807F063
:1058D800C1FB214B1B682BB140F241321B491F48C9
:1058E80007F0B8FBFFF7C4FE1D4B2A681B689342FC
:1058F800144425D2A24227D9A3422CBF0023012356
:105908002C608BB1174D28680430FFF71AFC40B99A
:105918002A681549D06A0B680122824023EA0203EB
:105928000B602046FFF752FCFFF74AFF38B90F4BD0
:105938004FF080521A60BFF34F8FBFF36F8F38BD9F
:10594800A242D9D90123DBE70023D9E712EF0108E6
:1059580031EF010844EF0108600D00205CEF0108F9
:10596800E40D0020D00C00206C0D002004ED00E0B8
:1059780038B5044640B9174B4FF080521A60BFF350
:105988004F8FBFF36F8F38BD134B1B682BB140F29D
:10599800A3321249124807F05DFBFFF769FE114D6B
:1059A800114B1B68286804301C44FFF7CAFB40B938
:1059B8002A680E49D06A0B680122824023EA020352
:1059C8000B602046FFF702FCFFF7FAFE0028D2D052
:1059D80038BD00BF04ED00E0600D002012EF0108A3
:1059E8005CEF0108D00C0020E40D00206C0D0020B5
:1059F80008B5124E124C236813B903F083FCF9E77B
:105A0800FFF736FE3568FFF7DBFE002DF3D001F017
:105A180053FAF368DD68281DFFF793FB094A1368FA
:105A2800013B13602368013B236001F067FA286B90
:105A380001F0A6F9284601F0A3F9DCE7D00D002013
:105A4800680D0020580D00202DE9F0410546174645
:105A5800FFF70EFE1E4B1B688B4237D80026DFF877
:105A68008480344606F1640105EB44100122414468
:105A7800FFF7D4FB143E16F1780F0444F2D1154B0E
:105A88000222196805EB4410FFF7C8FB124B0444C7
:105A98001968022205EB4410FFF7C0FB04440422F6
:105AA8000E4905EB4410FFF7B9FB044405EB44101D
:105AB80003220B49FFF7B2FB044417B10EF03EFA7C
:105AC8003860FFF77DFE2046BDE8F0810024F8E746
:105AD800580D0020D40C0020D80C0020D00D002038
:105AE800BC0D0020DC0C002038B50D4640B9054B34
:105AF8001C6801F0E1F92565BDE8384001F0FEB900
:105B08000446F6E7D00C002070B51E4B1A681E4BF1
:105B180012B101221A6070BD1A600EF00FFA1B4A0A
:105B28001B4E1468A04204D931684B6D1B1B0344FB
:105B38004B65184B10601C68B4FA84F4E4B2C4F1E5
:105B48001F041423144D6343EB582BB940F6C802C5
:105B58001249134807F07EFA142202FB04F3E918ED
:105B680008334868406848602B44984204BF43683B
:105B78004B6002FB04546368DB68336033685A6B1C
:105B8800084BC7E7600D0020E80D0020540D0020E9
:105B9800D00C00206C0D0020DC0C002012EF010856
:105BA800A7EF0108040000E0F8B50446284D01F00D
:105BB80083F904B92C68261D3046FFF7C2FA60B98C
:105BC800E06A244B142141435B5833B9224901222E
:105BD8000B68824023EA02030B60A36A1BB104F13D
:105BE8001800FFF7AEFA1D4F31463846FFF786FA20
:105BF80001F084F92B689C42194B1B681DD18BB1AD
:105C0800184B1B682BB140F22E521749174807F062
:105C180021FA174B4FF080521A60BFF34F8FBFF332
:105C28006F8FF8BD134A39681268914201D12B6011
:105C3800F8BDBDE8F840FFF767BF3BB101F03CF99C
:105C4800FFF792FABDE8F84001F058B9F8BD00BF77
:105C5800D00C0020DC0C00206C0D0020BC0D0020B6
:105C6800B80D0020600D002012EF01085CEF01085C
:105C780004ED00E0580D002070B50D46064628B921
:105C880040F6DA021349144807F0E4F9134C216886
:105C980030461831FFF73EFA20680430FFF751FA12
:105CA80040B922680E49D06A0B680122824023EA73
:105CB80002030B606B1C06D121680A480431BDE859
:105CC8007040FFF71BBA084B18682844BDE87040BD
:105CD800FFF77CBA12EF010876EF0108D00C00201C
:105CE8006C0D0020BC0D0020E40D0020F8B50D4619
:105CF8001646074628B940F659121449144807F0C1
:105D0800A9F9144C216838461831FFF7F7F92068CB
:105D18000430FFF716FA40B922680F49D06A0B68B9
:105D28000122824023EA02030B60012E06D121687A
:105D38000A480431BDE8F840FFF7E0B9084B186895
:105D48002844BDE8F840FFF741BA00BF12EF010848
:105D580076EF0108D00C00206C0D0020BC0D00204F
:105D6800E40D002038B5C368DC682CB940F6B412DD
:105D78001549164807F06EF904F118052846FFF78B
:105D8800E0F9134B1B68E3B9251D2846FFF7D9F93D
:105D98001049E26A08680123934003430B600E4BE5
:105DA8001420294600FB0230FFF7A8F90B4BE26AE2
:105DB8001B68DB6A9A4283BF094B012018600020E8
:105DC80038BD29460748EFE712EF0108C0F001087F
:105DD800600D00206C0D0020DC0C0020D00C002091
:105DE800E80D0020A40D002010B5044628B940F69F
:105DF80014220549054807F02DF9054B1B68236057
:105E0800044B1B68636010BD12EF010890EF010896
:105E1800A00D0020E40D002038B50D46044628B931
:105E280040F61E221449154807F014F92DB940F61A
:105E38001F221149124807F00DF901F03DF8114BE6
:105E480019682B685A1C10D00F4A206812689042B3
:105E5800626801D091420DD2881A83420AD95B1A2E
:105E680013442B602046FFF7BFFF002401F046F8DB
:105E7800204638BD0124F9E712EF010890EF010828
:105E8800EEEF0108E40D0020A00D0020014B0122D7
:105E98001A607047E80D0020054B1B6833B1054BAD
:105EA8001B68002B0CBF02200020704701207047A0
:105EB800B80D0020600D00202DE9F04104460028AF
:105EC80038D01D4DC36A2A68D26A934232D2826999
:105ED8001A4E002AA1BF2A68D26AC2F1060282615C
:105EE8001427426907FB03639A4220D100F1040892
:105EF8004046FFF726F9124A48B9E06A4743F35982
:105F08002BB913680121814023EA010313602B6830
:105F18001168D86AE062012383400B43136014239D
:105F2800414603FB0060BDE8F041FFF7E7B82B6886
:105F3800DB6AC362BDE8F081D00C0020DC0C0020D5
:105F48006C0D0020F8B5044608B90020F8BD204BB8
:105F58001B68984205D040F6A7521E491E4807F014
:105F680079F8E36C2BB940F6A9521A491B4807F097
:105F780071F8E36CE16AA26C013B9142E364E4D0FE
:105F8800002BE2D1251D2846FFF7DBF8144E154AF1
:105F980050B9E76A1421794373582BB91368012063
:105FA800B84023EA00031360A36CE362C3F106015F
:105FB800A1611168012404FA03F008431060142059
:105FC80000FB03602946FFF799F82046F8BD00BF9B
:105FD800D00C002012EF010895F00108ABF0010881
:105FE800DC0C00206C0D0020044B1A681AB11968EB
:105FF800CA6C0132CA641868704700BFD00C002010
:1060080038B51546026C04465AB905680DB100202A
:1060180003E04068FFF796FF6560A36B0133A36355
:1060280038BD65B9806818F05DFEA368226C13441A
:106038006268A3609342EAD32368A360E7E7C06875
:1060480018F050FE236CE26821685B421A448A42C9
:10605800E2603EBF62689B18E360022DD7D1A36B54
:10606800002BD4D0A36B013BA363D0E7034610B445
:106078001A6C084662B1D9685C681144A142D960BB
:1060880024BF1968D960D9685DF8044B18F02ABE96
:106098005DF8044B704738B5044600F00DFF04F175
:1060A8002405A36C002B12DC4FF0FF33A36400F02F
:1060B80025FF00F001FF04F11005636C002B13DCD1
:1060C8004FF0FF336364BDE8384000F017BF636AE0
:1060D800002BE9D02846FFF745FE08B1FFF7D6FEAA
:1060E800A36C013BA364DCE72369002BE8D02846B6
:1060F800FFF738FE08B1FFF7C9FE636C013B636424
:10610800DBE7000038B50D46044628B94FF4847221
:1061180019491A4806F09EFF00F0CEFE216CE36B89
:106128002268A2604B43D0185B1A13446060E36096
:1061380000204FF0FF33A0636364A3649DB9236913
:106148006BB104F11000FFF70DFE012807D10C4BCD
:106158004FF080521A60BFF34F8FBFF36F8F00F07C
:10616800CDFE012038BD04F11000FEF7B9FF04F19F
:106178002400FEF7B5FFF2E751F101086AF10108C2
:1061880004ED00E0F8B50D461746064628B940F27A
:1061980043121349134806F05DFF9DB105FB06F055
:1061A8000130543000F052FD044688B165B92060D2
:1061B800E663256401212046FFF7A4FF84F85070A8
:1061C8002046F8BD2846ECE700F154030360EFE7EA
:1061D80040F27F120249044806F03CFFF0E700BF96
:1061E80051F10108E4F001089FEF01082DE9FF478C
:1061F8000F4601921E46044628B940F267225949C3
:10620800594806F027FF1FB9236C002B40F09C80EB
:10621800022E03D1E36B012B40F09D80FFF73CFE7B
:1062280038B9019B2BB14FF41B724E494F4806F009
:1062380011FF4FF0000ADFF83891DFF8388153E09A
:1062480000286CD100F05AFE012004B0BDE8F087A8
:10625800019D45B900F052FEE36C454A43F40073D2
:1062680013600020F1E7BAF1000F02D102A8FFF78E
:10627800BBFD00F043FEFFF7FBF900F01DFE636C69
:10628800013304BF00236364A36C013304BF0023FC
:10629800A36400F033FE01A902A8FFF7BDFD0028A2
:1062A8004CD100F009FED4F838A0E56B00F026FECA
:1062B800AA453DD1E36C43F48063C9F800300199E5
:1062C80004F11000FFF7D8FC2046FFF7E4FEFFF7C3
:1062D80077FA38B94FF08053C8F80030BFF34F8FC2
:1062E800BFF36F8F4FF0010A00F0E6FDA26BE36B7E
:1062F8009A4201D3022EABD1E36C1D4A43F480735A
:106308001360394632462046FFF77AFE636A002B4F
:1063180096D004F12400FFF725FD012892D1154BF2
:106328004FF080521A60BFF34F8FBFF36F8F89E72A
:106338002046FFF7B0FEFFF743FAD3E72046FFF702
:10634800AAFEFFF73DFA87E74FF41A7205490A4893
:1063580006F080FE5CE740F269220249074806F031
:1063680079FE5BE751F101086AF1010809F20108B9
:106378000C0000E004ED00E072F10108C2F1010830
:1063880070B50646542000F061FC0446D8B10123DC
:106398000025C3634FF0FF338563456043640560A0
:1063A80083648560C560056480F850601030FEF72E
:1063B80097FE04F12400FEF793FE2B462A46294651
:1063C8002046FFF713FF204670BD00002DE9F0417D
:1063D8000E4690461D46044628B940F224422749F5
:1063E800274806F037FE16B9236C002B38D1022D4A
:1063F80002D1E36B012B3AD100F062FEEFF3118773
:106408004FF05F0383F31188BFF36F8FBFF34F8F94
:10641800A26BE36B9A4201D3022D1FD12A46314663
:106428002046FFF7EDFDA36C013313D1636A0BB966
:1064380001200BE004F12400FFF794FC0028F7D0BA
:10644800B8F1000FF4D00120C8F8000087F31188D4
:10645800BDE8F081A36C0133A364E9E70020F5E708
:1064680040F225420549074806F0F4FDBFE740F22F
:1064780026420249044806F0EDFDBDE751F1010846
:106488006AF1010872F10108C2F1010870B50D4600
:10649800044628B940F2BF422149224806F0DAFDF5
:1064A800236C2BB140F2C3421D491F4806F0D2FDB0
:1064B80023680BB9636863BB00F002FEEFF3118633
:1064C8004FF05F0383F31188BFF36F8FBFF34F8FD4
:1064D800A26BE36B9A421AD2A36B0133A363A36C3A
:1064E800013310D1636A0BB9012009E004F12400DB
:1064F800FFF738FC0028F7D0002DF5D001202860E0
:1065080086F3118870BDA36C0133A364ECE7002007
:10651800F6E74FF499620249044806F09BFDCBE781
:1065280051F101086AF101085FF2010878F20108E7
:106538002DE9FF470E4601929946044628B940F2D4
:106548005B525849584806F085FD1EB9236C002B4C
:1065580040F0A080FFF7A0FC38B9019B2BB140F2B6
:106568005F525049514806F075FD4FF0000ADFF8B8
:1065780048814F4F5BE0636AE5602BB104F124006A
:10658800FFF7F0FB002870D100F0B8FC012004B040
:10659800BDE8F087019D1DB900F0B0FC0020F6E7CA
:1065A800BAF1000F02D102A8FFF71EFC00F0A6FC0A
:1065B800FFF75EF800F080FC636C013304BF002332
:1065C8006364A36C013304BF0023A36400F096FC4A
:1065D80001A902A8FFF720FC002855D100F06CFCA7
:1065E800A56B00F08BFC002D48D1E36C43F440739D
:1065F800C8F80030236833B900F05EFC6068FFF724
:106608005BFC00F07BFC019904F12400FFF734FBEC
:106618002046FFF740FDFFF7D3F830B94FF080531D
:106628003B60BFF34F8FBFF36F8F4FF0010A00F04D
:1066380043FCA36B002BADD031462046E568FFF73D
:1066480015FDB9F1000F96D1A36B013BA363236835
:1066580013B9FFF7C9FC60602369002B94D004F1DB
:106668001000FFF77FFB01288ED1114B4FF08052AD
:106678001A60BFF34F8FBFF36F8F85E72046FFF790
:106688000AFDFFF79DF8D0E72046FFF704FDFFF766
:1066980097F883E740F25C520249064806F0DAFCB4
:1066A80058E700BF51F101086AF1010809F2010831
:1066B80004ED00E006F101080C0000E0F8B50E4614
:1066C8001746044628B940F215621D491D4806F0D0
:1066D800C1FC0EB9236C63BB00F0F2FCEFF311852B
:1066E8004FF05F0383F31188BFF36F8FBFF34F8FB2
:1066F800A06BB8B131462046FFF7B8FCA36B013B4D
:10670800A363636C013310D123690BB9012009E03D
:1067180004F11000FFF726FB0028F7D0002FF5D072
:106728000120386085F31188F8BD636C0133636418
:10673800ECE740F216620249034806F08BFCCBE70F
:1067480051F101086AF1010806F1010810B5044683
:1067580028B94FF4D4620549054806F07BFC00F0DF
:10676800ABFBA46B00F0CAFB204610BD51F1010839
:106778006BF1010830B5074A002352F8335002EB99
:10678800C3041DB942F83310606030BD01330A2BD1
:10679800F3D130BD74F8002070B504460D46164696
:1067A80000F08AFB636C013304BF00236364A36CAD
:1067B800013304BF0023A36400F0A0FBA36B2BB933
:1067C8003246294604F12400FFF790FA2046BDE836
:1067D8007040FFF760BC0000F8B5134C00F06CFB8C
:1067E8002568EDB9114F124E3846FEF779FC304650
:1067F800FEF776FC0F4B1F600F4B2A460C21142026
:106808001E60FFF7BFFC206028B940F21A320B491E
:106818000B4806F01FFC206810B10A49FFF7AAFFD1
:10682800BDE8F84000F06ABB200E0020F40D0020FF
:10683800080E0020EC0D0020F00D0020D3F2010816
:10684800EDF20108F9F20108914208B541600061D2
:106858000AD8D21A83699A420DD2084B011D1868CA
:10686800FEF758FC002008BD9A4201D2994202D294
:10687800011D034BF3E7012008BD00BFF00D002008
:10688800EC0D00201FB5FFF7A7FF0E4B1B684BB997
:106898000D480E494FF4877206F0DCFB002005B066
:1068A8005DF804FB002301220092039302930193F5
:1068B8004FF4967206490748FEF7F6FC0028EED119
:1068C800E6E700BF200E00209FEF0108D3F2010881
:1068D80047F30108196A00082DE9F0418046174678
:1068E8001E460D4699B12C2000F0B0F9044658B167
:1068F800FFF772FF069BC4F80080A561E761266276
:106908006362201DFEF7F7FB2046BDE8F0814FF4D7
:106918009B720349034806F09DFB2C46F4E700BF31
:10692800D3F201082BF301082DE9FF410D469046EB
:106938001F46064628B940F241121149114806F08F
:1069480089FB114C206888B1052D0195CDF8088088
:1069580003960EDCFFF7A0FA0023022808BF0A9A64
:10696800206818BF1A4601A9FFF740FC04B0BDE82B
:10697800F08100233A4601A9FFF728FDF6E700BF9A
:10698800D3F201084FF30108200E00202DE9F74348
:106998001B4D1C4FDFF874802B681A6832B91A4AED
:1069A80011682960136003B0BDE8F083DB68DC6818
:1069B8001E6804F104094846FEF7C3FB636A2046D3
:1069C8009847E369012BE7D1A36933449E4206D275
:1069D8006360246149462868FEF79CFBDCE70023D6
:1069E8000093324619462046FFF79EFF0028D3D170
:1069F8004FF43F723946404606F02CFBCCE700BF07
:106A0800EC0D0020D3F20108F00D0020FEF2010881
:106A18002DE9F04F684D87B0DFF8B8B1DBF80020FA
:106A2800D2F80080B8F1000F71D0D268D2F8009087
:106A3800624EFEF71DFEFEF723FE32689042824644
:106A4800374666D2FFF7A2FF0124C6F800A05C4EC5
:106A5800002C7AD1B8F1000F5DD0D14573D8FEF77C
:106A6800AFFEDBF80030DB68D3F80CB00BF10400A4
:106A7800FEF767FBDBF81C30012B17D1DBF8181089
:106A88004B46524649445846FFF7DEFE01280DD1D1
:106A9800009423464A4621465846FFF745FF28B941
:106AA80040F293122946474806F0D4FADBF824301E
:106AB8005846984700231A4603A93068FFF738FD5F
:106AC8000028A9D0039B002BF4DB059C636913B154
:106AD800201DFEF736FBFEF7D3FD3B689842814642
:106AE80001D2FFF753FF039BC7F80090092BE1D8A9
:106AF800012202FA03F313F4047A4BD113F0C70FFF
:106B080026D19B06D6D5204600F03AF9D2E7C146F1
:106B18008EE7002499E72C4B1B681A68B2FA82F2B8
:106B28005209A9EB0A013068FFF736FEFEF748FE66
:106B38000028BFD1254B4FF080521A60BFF34F8F0A
:106B4800BFF36F8FB6E72246EBE7FEF739FEB1E7F2
:106B5800A169049B4A4619442046FFF775FE01289F
:106B6800A8D1636A20469847E369012BA2D1A2699C
:106B78000499CDF800A00A44534651462046FFF731
:106B8800D3FE002896D14FF4287229460D4806F006
:106B980061FA8FE7049BA3612BB940F2B72229461B
:106BA8000B4806F057FAA1694B464A464944204625
:106BB800FFF74AFE7EE700BFD3F201081C0E002053
:106BC800200E0020FEF20108F00D002004ED00E088
:106BD80006F30108EC0D002010B5044628B94FF45F
:106BE80053720549054806F035FA00F065F9246A3C
:106BF80000F084F9204610BDD3F201084FF30108D4
:106C080010B5104B1A68824219D35C68191988426A
:106C180001BF416818460919596041684418A242E1
:106C280008D1094C2468A24204D052680A44426040
:106C38001A6812680260984218BF186010BD13469F
:106C4800E0E700BF74AA0020240E00202DE9F843D5
:106C58000446FEF70DFD4049404D0B68FBB9404A1C
:106C6800404E50071FBF07323F4B22F007029B1AC6
:106C780008BF49F640431344083B23F007030020AC
:106C880070603260586018600B60981A1360374B58
:106C980050601860364B18604FF000432B602B682B
:106CA8001C4213D194B1083463071CBF24F00704B5
:106CB80008345CB12E4F3B689C4207D8294B1E68AC
:106CC8007268944205D80A68964208D14FF00008C5
:106CD8002EE03268002AF6D033461646F0E73268CE
:106CE80018681A6073681B1B102B00F1080811D96B
:106CF80006EB040919F0070F04D0E8221D491E48C5
:106D080006F0A8F973681B1BC9F80430484674607C
:106D1800FFF776FF154972683B6808689B1A83423B
:106D28003B6038BF0B602B681343736000233360EC
:106D3800FEF746FDB8F1000F01D102F07FF918F017
:106D4800070F05D04FF494720A490C4806F082F9EF
:106D58004046BDE8F88300BF240E002068AA002042
:106D6800280E002074AA002068AA002070AA00201B
:106D78006CAA002056F3010881F30108C2F3010848
:106D880038B5044680B3194D50F8041C2A681142DE
:106D980005D14FF49E721649164806F05BF954F86F
:106DA800083C2BB140F23D121149134806F052F944
:106DB80054F8043C2A68134216D054F8081C99B9B0
:106DC80023EA020344F8043CFEF752FC0B4A54F849
:106DD800043C1168A4F108000B441360FFF710FF8E
:106DE800BDE83840FEF7ECBC38BD00BF68AA0020FB
:106DF80056F30108FFF3010830F401086CAA0020DB
:106E0800014B1868704700BF6CAA0020064800684C
:106E1800006880F3088862B661B6BFF34F8FBFF38E
:106E28006F8F00DF00BF000008ED00E0DFF80C0006
:106E3800016841F4700101607047000088ED00E0CE
:106E480008B5094B1B68013305D040F20712074902
:106E5800074806F0FFF84FF05F0383F31188BFF38C
:106E68006F8FBFF34F8FFEE70000002050F401083A
:106E78007EF401084FF0807300E90A00054B40F8E2
:106E88000C3C6FF0020340F8202C40F8243C4438B6
:106E9800704700BF496E0008064B19680868B0E8DB
:106EA800F04F80F30988BFF36F8F4FF0000080F335
:106EB80011887047D00C00204FF05F0383F31188CE
:106EC800BFF36F8FBFF34F8F084A13680133012B4D
:106ED80013600AD1064B1B6813F0FF0F05D040F270
:106EE8009F120449044806F0B5B870470000002016
:106EF80004ED00E050F4010898F4010810B5084CBE
:106F080023682BB94FF4D3720649074806F0A2F854
:106F18002368013B23600BB983F3118810BD00BFC0
:106F28000000002050F40108CDF40108EFF30980B7
:106F3800BFF36F8F144B1A681EF0100F08BF20EDB7
:106F4800108A20E9F04F10604DF8043D4FF05F00C3
:106F580080F31188BFF34F8FBFF36F8FFEF7D4FD17
:106F68004FF0000080F3118808BC19680868B0E881
:106F7800F04F1EF0100F08BFB0EC108A80F309889C
:106F8800BFF36F8F704700BFD00C002008B5EFF338
:106F980011834FF05F0282F31188BFF36F8FBFF345
:106FA8004F8FFEF773FB18B1034B4FF080521A60F6
:106FB800002383F3118808BD04ED00E0034B044A65
:106FC8001A60072243F8042C704700BF14E000E061
:106FD8003F90020013B52E4C2E4A2168914205D1EC
:106FE80040F23D122C492D4806F034F822682C4B0B
:106FF8009A4205D14FF49F7227492A4806F02AF889
:10700800294B1A78D2B20192FF221A701B78274AAC
:10701800DBB28DF803309DF8033003F05F03137083
:10702800234B07221A6000219DF80300000602F195
:10703800FF3423D401B11A601A68120202F4E06224
:107048001A60019B184ADBB213701A4B1A6842F493
:107058007F021A601A6842F07F421A60FFF7AEFF9B
:10706800154B00221A60FFF7E1FE144A136843F03B
:1070780040431360FFF7CAFEFFF7E2FE9DF80320C6
:107088005200D2B28DF8032001212246CCE700BF7E
:1070980000ED00E071C20F4150F401084BF5010802
:1070A80070C20F416EF5010800E400E07CAA0020E0
:1070B80080AA002020ED00E00000002034EF00E06E
:1070C80008B5EFF305830F2B0BD90E4A9B5C0E4ACC
:1070D80012789A4205D94FF438720C490C4805F0D9
:1070E800B9FF0C4B0C4A1B68126803F4E063934227
:1070F80007D94FF43C7205490848BDE8084005F037
:10710800A9BF08BDF0E300E07CAA002050F4010804
:10711800DFF401080CED00E080AA002009F5010861
:1071280008B501214FF4807000F060FC00214FF495
:107138008070BDE8084000F059BC000043680A7937
:1071480023F0407323F4807343EA02230A6813434D
:107158004360CA680B6913438A6810B5134384688F
:10716800084A224013434A7943EA420383600A7D6E
:10717800C36A013A23F47003D2B243EA0253C362EA
:1071880010BD00BFFDF7FFC000230360037143710A
:107198008360C360036101230375704710B590E8ED
:1071A8000C00064913434C68054A22401343826881
:1071B8001343C26813434B6010BD00BF0023014056
:1071C800E030FCFF0023036043608360C3607047C6
:1071D800836819B143F001038360704723F001030A
:1071E800FAE7092970B51BD9A1F10A04C56804EBAF
:1071F80044040726A64025EA060503FA04F42C43AE
:10720800C460062A18D8013A436B02EB82021F2495
:10721800944023EA040301FA02F21A43426370BD60
:10722800056901EB41060724B44025EA040503FA81
:1072380006F42C430461E4E70C2A0CD8073A036BE4
:1072480002EB82021F24944023EA040301FA02F2AB
:107258001A43026370BD0D3AC36A02EB82021F240F
:10726800944023EA040391401943C16270BD8368C6
:1072780043F0804383607047C06C80B270470368F6
:10728800194214BF0120002070470000044B5A68BF
:1072980011B110435860704722EA0000FAE700BFB6
:1072A800002004E0044BDA6811B11043D86070473D
:1072B80022EA0000FAE700BF002004E0036823F098
:1072C800010303600023036043608360C3600361BC
:1072D800212343612A4B984203D13D2243F8082CCD
:1072E8007047284B984204D14FF4746243F8202C1D
:1072F8007047254B984204D14FF4741243F8382C48
:107308007047224B984204D14FF0746243F8502CD6
:1073180070471F4B984203D11E4A43F8642C7047AC
:107328001D4B984203D11D4A43F87C2C70471C4BD7
:10733800984203D11B4A43F8942C70471A4B984241
:1073480004D14FF03D5243F8AC2C17E0174B98424C
:10735800C3D0174B9842C7D0164B9842CCD0164B87
:107368009842D1D0154B9842D6D0154B9842DAD0D6
:10737800144B9842DED0144B9842E2D0704700BFBD
:10738800106002402860024040600240586002409D
:10739800706002403D00002088600240400F0020DD
:1073A800A060024000003D20B86002401064024026
:1073B80028640240406402405864024070640240FD
:1073C80088640240A0640240B86402400368134A1B
:1073D80010B51A40CC680B6823434C6923438C6969
:1073E8002343CC6923430C6A23434C6A23438C6AA6
:1073F80023434C6B23438C6B234313430360426941
:10740800CB6A0C6B22F007022343134343610B69D9
:1074180043604B6883608B68C36010BD3F801CF07D
:10742800036819B143F001030360704723F00103B7
:10743800FAE741607047406880B27047006800F022
:107448000100704710B50A4B0A4A0B4CA04294BF82
:10745800184610468B004CBF4368036821F0F021A2
:1074680021F08211194214BF0120002010BD00BF75
:1074780000600240006402400F6402400B0612D50F
:10748800436952B143F080038029436104D0036803
:1074980001F01E0119430160704723F08003802921
:1074A800436104D170478029F6D0002AEFD10368E0
:1074B80001F01E0123EA0101EDE70000114B124A19
:1074C80010B5124CA04288BF1A4621F0F02323F0D1
:1074D800C31393B1006800EAD12000F01E038800AE
:1074E8004CBF5068106821F0F02121F0821108404B
:1074F80002D0181C18BF012010BD436903F0800397
:10750800EDE700BF00640240006002400F640240E3
:1075180010B5084A084B094CA04294BF18461046BB
:1075280011F0005F21F0F02121F0821114BFC16039
:10753800816010BD00640240006002400F64024098
:10754800FFF7E6BF8379016810B5002B30D01D4BDB
:107558001A6822EA01021A605A68016822EA0102DE
:107568005A600279046802F1804202F59E3211687D
:10757800214311609A68016822EA01029A60016851
:10758800DA6822EA0102DA6042790168102A07D132
:107598009A680A439A60DA6801680A43DA6010BD9B
:1075A80002F1804303F59E331A680A431A6010BD3E
:1075B800037903F1804303F59E331A6822EA010236
:1075C800F4E700BF003C0140014B5861704700BF21
:1075D800003C0140034B5B69034214BF01200020BB
:1075E800704700BF003C0140014B5861704700BF25
:1075F800003C0140F0B50022012603250B6806FA7D
:1076080002FE3EEA03032ED15400076805FA04F38C
:10761800DB431F4007600F79D0F800C0A74047EA56
:107628000C0707600F79013F012F11D887683B408D
:1076380083604B798768A3403B438360436823EAB0
:107648000E0343608B79476893409BB23B4343608A
:10765800C36805FA04F723EA0703C360CB79C76850
:10766800A3403B43C3600132102AC7D1F0BD4FF697
:10767800FF7303600023037143718371C371704703
:107688000369194214BF0120002070470183704725
:10769800418370470AB1018370474183704710B531
:1076A80001F00703C90800EB81009B00016A0F2461
:1076B8009C4021EA04010162016A9A400A4302627D
:1076C80010BD000008B5144B98420BD101214FF4AE
:1076D800001000F07FF900214FF40010BDE80840C9
:1076E80000F078B90D4B984208D101214FF4800081
:1076F80000F070F900214FF48000EFE7084B984242
:1077080008D101214FF4000000F064F900214FF482
:107718000000E3E708BD00BF0054004000580040E7
:10772800005C00407FB5868826F03F060446360494
:1077380068460D46360C00F0D9F8029A2B49B2FB80
:10774800F1F188B20643A6802388294E23F001036D
:107758001B041B0C23802B68B34223D85B00013029
:10776800B2FBF3F39BB2042B80B238BF042320840E
:10777800A38323889BB243F0010323802388AA882C
:10778800698923F4816323F002031B040A431B0C59
:1077980013439BB22380AB892A8913439BB223816D
:1077A80004B070BDEE884BF6FF7086421BBF1920EF
:1077B800434303EB4303B2FBF3F315BF9BB2B2FBA6
:1077C800F3F343F480439BB2C3F30B020AB943F0CB
:1077D80001034FF496724A434FF47A7192FBF1F227
:1077E800013292B243F400432284C1E740420F00C1
:1077F800A086010022B141F0010189B201827047DF
:1078080001F0FE01F9E7038821B19BB243F48063DC
:107818000380704723F480631B041B0CF8E7018284
:107828007047008AC0B27047838821B19BB243F485
:1078380000638380704723F400631B041B0CF8E784
:10784800838821B19BB243F480538380704723F42B
:1078580080531B041B0CF8E783889BB212B11943B1
:107868008180704723EA0101FAE782B00023009380
:1078780001930B0F01900093009B21F07F4153B1BE
:10788800019B14330193019B1B68194214BF01200B
:10789800002002B07047019B090C1833F2E7C94376
:1078A80089B2818270470000014B1860704700BFA1
:1078B80000300040014B5860704700BF0030004066
:1078C800014B9860704700BF00300040024B4AF6F9
:1078D800AA221A60704700BF00300040024B4CF6E5
:1078E800CC421A60704700BF0030004010B51D4AF6
:1078F800936803F00C03042B1AD0082B1AD01A4BE8
:10790800184A036093681949C3F30313CC5C0368EE
:10791800E34043609468C4F382240C5D23FA04F4C2
:1079280084609268C2F342328A5CD340C36010BD5F
:107938000F4BE5E75468516852686302C2F3881236
:1079480001F03F014CBF0A4B074BB3FBF1F3534324
:10795800044A5268C2F3014201325200B3FBF2F307
:10796800CEE700BF003802400024F40004000020E5
:1079780000127A00044B1A6B11B110431863704758
:1079880022EA0000FAE700BF00380240044B5A6BB5
:1079980011B110435863704722EA0000FAE700BFAC
:1079A80000380240044B1A6C11B110431864704738
:1079B80022EA0000FAE700BF00380240044B5A6C84
:1079C80011B110435864704722EA0000FAE700BF7B
:1079D80000380240044B1A6A11B11043186270470C
:1079E80022EA0000FAE700BF00380240044B5A6A56
:1079F80011B110435862704722EA0000FAE700BF4D
:107A0800003802404209012A074B07D11B6800F0E1
:107A18001F0023FA00F000F001007047022A0CBF93
:107A28001B6F5B6FF3E700BF00380240024A536FD9
:107A380043F08073536770470038024008B5274BFE
:107A480098420BD101214FF48050FFF7CFFF00215E
:107A58004FF48050BDE80840FFF7C8BF204B98425C
:107A68000BD101214FF48040FFF7B4FF00214FF400
:107A78008040BDE80840FFF7ADBF1A4B984208D1D7
:107A880001214FF40040FFF7A5FF00214FF400400B
:107A9800EFE7154B984208D101214FF40050FFF74A
:107AA800A5FF00214FF40050D4E7104B984208D1AD
:107AB80001214FF48010FFF799FF00214FF4801047
:107AC800C8E70B4B984208D101214FF40010FFF78B
:107AD8008DFF00214FF40010BCE708BD00300140C5
:107AE80000380040003C0040003401400050014094
:107AF80000540140038810B503F441524C880B88A8
:107B080023438C882343CC8823430C8923434C8903
:107B180023438C892343CC89234313439BB203809B
:107B2800838B23F400631B041B0C83830B8A03825F
:107B380010BD038821B19BB243F040030380704716
:107B480023F040031B041B0CF8E783889BB212B197
:107B580019438180704723EA0101FAE730B5048CA4
:107B680024F001042404240C0484048B058C24F0E0
:107B7800F304240442EA0313240C1C4325F00A03EB
:107B88001B041B0C41F00101A4B20B4304830384C2
:107B980030BD30B5048C24F010042404240C048473
:107BA800058B048C120242EA033324F0A00225F468
:107BB800407512042D05120C2D0D42EA01111D43CA
:107BC80041F01001ADB289B20583018430BD0000D7
:107BD80008B54D4B984209D101210846FFF706FF29
:107BE80000210120BDE80840FFF700BFB0F1804F39
:107BF80009D101210846FFF7EDFE00210120BDE86B
:107C08000840FFF7E7BE414B984206D10121022008
:107C1800FFF7E0FE00210220F1E73D4B984206D134
:107C280001210420FFF7D6FE00210420E7E7394BA5
:107C3800984206D101210820FFF7CCFE0021082038
:107C4800DDE7354B984206D101211020FFF7C2FE2F
:107C580000211020D3E7314B984206D10121202082
:107C6800FFF7B8FE00212020C9E72D4B984206D126
:107C780001210220FFF7BAFE00210220B2E7294BBA
:107C8800984208D101214FF48030FFF7AFFE002160
:107C98004FF48030A6E7244B984208D101214FF4D5
:107CA8000030FFF7A3FE00214FF400309AE71F4B86
:107CB800984208D101214FF48020FFF797FE002158
:107CC8004FF480208EE71A4B984206D101214020BC
:107CD800FFF780FE0021402091E7164B984206D11D
:107CE80001218020FFF776FE0021802087E7124BD4
:107CF800984208D101214FF48070FFF76BFE0021F4
:107D08004FF480707BE708BD00000140000400408C
:107D180000080040000C0040001000400014004023
:107D28000004014000400140004401400048014077
:107D380000180040001C0040002000401C4A038836
:107D480090429BB212D002F5806290420ED0B0F100
:107D5800804F0BD0A2F58032904207D002F58062A6
:107D6800904203D002F58062904203D14A8823F002
:107D7800700313430F4A904208D002F58062904284
:107D88001FBF23F440730A899BB2134303804B68D7
:107D9800C3620B880385064B984203D003F58063C2
:107DA800984201D18B7A038601238382704700BFF2
:107DB80000000140001000404FF0FF3343600023F3
:107DC80003800381438083727047018582827047F4
:107DD800038821B19BB243F001030380704723F06D
:107DE80001031B041B0CF8E7038C23F001031B049D
:107DF8001B0C038470B5038C8288048B0D884E8815
:107E080024F073042404240C2C4323F002038D89EA
:107E18001B0435431B0C2B430E4DA84292B29BB258
:107E280003D005F58065A8420ED1CD894E8A23F08E
:107E380008032B438D8823F004032B430D8A22F477
:107E4800407235432A4392B2828004838A6842632F
:107E5800038470BD00000140038C23F010031B0451
:107E68001B0C038470B5038C8488028B0D884E88A4
:107E780022F4E6421204120C42EA052223F02003FF
:107E88008D891B0435431B0C43EA0513114DA84289
:107E9800A4B292B29BB203D005F58065A84213D173
:107EA800CD894E8A23F0800343EA05134FF6BF7548
:107EB8001D408B8845EA03130D8A24F4406435433A
:107EC80044EA85049BB2A4B2848002838A688263F0
:107ED800038470BD00000140038C23F480731B04ED
:107EE8001B0C038470B5038C8288848B0D884E88A4
:107EF80024F073042404240C2C4323F400738D8988
:107F08001B0435431B0C43EA0523114DA84292B2CA
:107F18009BB203D005F58065A84213D1CD894E8A5E
:107F280023F4006343EA05234FF6FF351D408B8891
:107F380045EA03230D8A22F44052354342EA0512EA
:107F48009BB292B2828084838A68C263038470BDC4
:107F580000000140038C23F480531B041B0C038492
:107F680070B5038C8488828B0D884E8822F4E64293
:107F78001204120C42EA052223F400538D891B04D3
:107F880035431B0C43EA05330A4DA842A4B292B20A
:107F98009BB203D005F58065A84205D10D8A24F46B
:107FA800804444EA8514A4B2848082838A68026487
:107FB800038470BD000001404163704781637047CE
:107FC800C163704701647047038B23F008031B04E7
:107FD8001B0C194301837047038B23F400631B04B4
:107FE8001B0C43EA012189B201837047838B23F07C
:107FF80008031B041B0C194381837047838B23F4EC
:1080080000631B041B0C43EA012189B2818370477A
:1080180000230122038043808280C380038170474C
:10802800406B7047806B7047006C7047038B23F080
:108038000C031B041B0C0383038B9BB219430183A2
:108048007047038B23F440631B041B0C0383038BCF
:108058009BB243EA012189B201837047838B23F0E5
:108068000C031B041B0C8383838B9BB219438183F2
:108078007047838B23F440631B041B0C8383838B1F
:108088009BB243EA012189B281837047F8B50D8814
:108098000B898A880E46498835B9FFF75FFDF18854
:1080A800BDE8F840FFF7C2BF042D06D1FFF771FD08
:1080B800F188BDE8F840FFF7C4BF082D058C1CD136
:1080C80025F480752D042D0C0584878B058CBFB293
:1080D80027F0F3073A43ADB242EA031325F42062CE
:1080E80042F4807242EA01219BB289B283830184FF
:1080F800F188BDE8F840FFF7B1BF25F480552D049D
:108108002D0C0584878B058C25F4005527F44077C2
:108118006D043F051B036D0C3F0D45F4805543EA84
:1081280002233B4345EA01319BB289B28383018430
:10813800F188BDE8F840FFF79CBFB0F8443039B18A
:108148006FEA43436FEA53439BB2A0F84430704749
:10815800C3F30E03F9E7038A194214BF0120002074
:108168007047038A828911EA030092B203D0114250
:1081780014BF012000207047C94389B201827047AB
:1081880083899BB212B119438181704723EA0101A7
:10819800FAE7FFF7F5BF000030B5038ACA889BB23B
:1081A80023F440531343038283890D4623F4B052CA
:1081B8008B8809890B43698922F00C020B4312044E
:1081C800120C9BB213438381838AAA899BB223F43E
:1081D8004073134385B0838204466846FFF786FBE5
:1081E800194B9C4203D003F580639C4222D103992A
:1081F800A38913F4004F2B684FF0190214BF5B00DA
:108208009B004A43B2FBF3F1A28964251204B1FB37
:10821800F5F34FEA031005FB13130DD5DA003232DC
:10822800B2FBF5F202F0070242EA00039BB2238197
:1082380005B030BD0299DBE71B013233B3FBF5F320
:1082480003F00F030343F1E700100140838921B1D4
:108258009BB243F400538381704723F400531B04FB
:108268001B0CF8E7C1F30801818070478088C0F3D0
:1082780008007047838A9BB212B119438182704704
:1082880023EA0101FAE710B5C1F3421401F01F0314
:10829800012C4FF0010101FA03F105D10C300368FC
:1082A8003AB11943016010BD022C0CBF10301430D4
:1082B800F5E723EA0101F5E7C94389B20180704770
:1082C800C1F3421210B5012301F01F04012A03FA79
:1082D80004F30ED1828992B21340028892B26BB134
:1082E8000123090A03FA01F10A4214BF18460020C3
:1082F80010BD022A0CBF028A828AECE7184610BD1C
:1083080040F0BF60024B40F40030D860704700BFB7
:1083180000ED00E010B5C378027803B3154BD968B7
:108328004378C943C1F30221C1F10404E4B2A34074
:108338000F2444FA01F18478DBB221400B430E4943
:108348001B010A44DBB282F8003303780122580982
:1083580003F01F0302FA03F341F8203010BD53095C
:10836800012102F01F0201FA02F22033024941F80A
:10837800232010BD00ED00E000E100E010B501F0A1
:10838800030301F0FC0101F1804101F59C319B00E0
:108398008A680F249C4022EA04028A608A6898400E
:1083A8001043886010BD08B508F0CBFA00F060FEF5
:1083B800FDF718F908F0EEFA0121002008F0E4FAB8
:1083C8000121084608F0E0FAFEE700002DE9F04137
:1083D8001E4E3578C5BB1E4C01214FF48040FFF777
:1083E800D5FA01270623A57020460D252370E770CE
:1083F8006570FFF78FFF0723204623706570FFF72E
:1084080089FF0823204623706570FFF783FF09233F
:10841800204623704FF00A086570FFF77BFF05239D
:108428002046637084F80080FFF774FF1723204606
:1084380023706570FFF76EFF2823204684F80180BB
:108448002370FFF767FF3770BDE8F08188AA002026
:1084580084AA0020704708B50120FFF7C5F8FFF788
:10846800F9FF08BD704708B50220FFF7BDF8FFF710
:10847800F9FF08BD704708B50420FFF7B5F8FFF706
:10848800F9FF08BD704708B50820FFF7ADF8FFF7FA
:10849800F9FF08BD08B51020FFF7A6F80AF03EFB63
:1084A80008BD7047704770477047704708B520206F
:1084B800FFF790F8012804D12020FFF795F8FFF77F
:1084C800F0FF4020FFF786F8012804D14020FFF78D
:1084D8008BF8FFF7E7FF8020FFF77CF8012804D12D
:1084E8008020FFF781F8FFF7DEFF4FF48070FFF779
:1084F80071F8012805D14FF48070FFF775F8FFF780
:10850800D3FF4FF40070FFF765F8012805D14FF449
:108518000070FFF769F8FFF7C8FF08BD704770479C
:108528007047704708B54FF48060FFF753F801288B
:1085380005D14FF48060FFF757F8FFF7EFFF4FF4CE
:108548000060FFF747F8012805D14FF40060FFF7F6
:108558004BF811F0C1FF4FF48050FFF73BF80128AA
:1085680005D14FF48050FFF73FF8FFF7D8FF4FF4DD
:108578000050FFF72FF8012805D14FF40050FFF7FE
:1085880033F80CF011FB4FF48040FFF723F8012873
:1085980005D14FF48040FFF727F8FFF7C1FF4FF4EC
:1085A8000040FFF717F8012805D14FF40040FFF706
:1085B8001BF8FFF7B6FF08BD4FF44070FFF7A0BEE9
:1085C800FEF7E4BC70471EF0040F0CBFEFF3088001
:1085D800EFF3098000F002B8704700002DE9F84F6A
:1085E800D0F800B0D0F804A0D0F80890D0F80C80EB
:1085F800076946698569C4693449354804F091FEBC
:108608005A463449324804F08CFE524632493048C2
:1086180004F087FE4A4631492D4804F082FE42465E
:108628002F492B4804F07DFE3A462E49284804F08D
:1086380078FE32462C49264804F073FE2A462B4918
:10864800234804F06EFE22462949214804F069FEB9
:10865800284B29491A681E4804F063FE274B28490D
:108668001A681B4804F05DFE264B27491A6818480B
:1086780004F057FE254B26491A68154804F051FEA8
:10868800244B25491A68124804F04BFE002108467D
:1086980000F05AF90021012000F056F900210220CB
:1086A80000F052F90021032000F04EF908F0A0F97B
:1086B8000121022008F068F90121042008F064F97A
:1086C8009321164804F0FEFCFEE700BF91F501086F
:1086D800452C0108A7F50108B0F50108B9F501080E
:1086E800C2F50108CBF50108D5F50108DEF501084A
:1086F800E7F5010838ED00E0F1F5010828ED00E0A4
:10870800FCF501082CED00E007F6010830ED00E06B
:1087180012F601083CED00E01DF6010828F60108F4
:10872800002108B5084600F00FF90021012000F0EB
:108738000BF90021022000F007F90021032000F0C6
:1087480003F908F055F90121022008F01DF901216B
:10875800042008F019F9A621014804F0B3FCFEE74B
:1087680028F60108002108B5084600F0EDF80021B8
:10877800012000F0E9F80021022000F0E5F80021CE
:10878800032000F0E1F808F033F90121022008F095
:10879800FBF80121042008F0F7F8BA21014804F099
:1087A80091FCFEE728F60108002108B5084600F00C
:1087B800CBF80021012000F0C7F80021022000F0CA
:1087C800C3F80021032000F0BFF808F011F90121D7
:1087D800022008F0D9F80121042008F0D5F8CE21AC
:1087E800014804F06FFCFEE728F60108704708F01E
:1087F800E5BF000037B50F4D00246846FEF737FF88
:108808002B681A59D26800921B5969469868FEF776
:10881800F1FE2B681B590022198A9868FEF73FFF62
:108828002B681B590434186AFFF7D2F9102CE4D1CD
:1088380003B030BDC4F800202DE9F043404F414D4E
:108848003B788BB0044613B12868FFF7D3FF2C6040
:108858004FF0010900244FF002082B681B59012131
:108868005868FFF787F82B681B590121D869FFF76B
:1088780099F86846FEF7FBFE2B688DF804808DF8A2
:1088880005801A5952698DF806201A59D268009243
:108898001B5969469868FEF7ADFE2B681B591A7E6E
:1088A800198A9868FEF7FBFE2B681A59D26A039258
:1088B8001A590026128EADF80820ADF81060ADF8F0
:1088C8000A608DF812601B5902A9186AFFF736FA78
:1088D8006023ADF814302B68ADF8169007961A5936
:1088E800928CADF820204FF48072ADF824201B59EB
:1088F80005A9DA6B186A90472B681B5908211A6C6E
:10890800186A90472B681B590121986AFEF7CAFC20
:108918002B681B590121186A0434FFF70EFC102C30
:108928009BD12B689B590121186A0436FFF750FA2E
:10893800102EF6D101233B700BB0BDE8F08300BFC9
:1089480089AA0020C4F8002070B52DED028B2F4BAA
:108958001B7882B005460C46002B52D0032804D958
:10896800D9222B492B4804F075FB2B4E326852F85C
:10897800252012785ABB07EE904A9FED287A9FED82
:10898800288AFBEEC87A67EE877A9FED267A27EE6B
:10899800888A27EE877AA7EE878A0AF051FD88EE43
:1089A800000A214BF7EE007AB4EE670AF1EE10FAEE
:1089B800C8BFB0EE670ADFED1D7A20EE270AFCEE8D
:1089C800C07ACDED017ABDF8044043F825403368FC
:1089D80053F825301A78012A02BF45F208214C4382
:1089E8004FF6FF705A6B08BFB4FBF0F4186A06BF65
:1089F800091989B2210A02B0BDEC028BBDE87040AA
:108A0800104702B0BDEC028B70BD00BF89AA0020E0
:108A180070F8010889F80108C4F8002000007042C5
:108A28005839B43D388D23BA8CAA002000FF7F47FF
:108A380003282DE9FF410446884617461E4605DDF2
:108A480040F213121749184804F004FB01A8FFF775
:108A5800B3F9164DB8F1000F18D00423144A92FB4D
:108A6800F7F292B2ADF8043002922B6853F8243032
:108A780001A9186AFFF762F92B6853F824303146C8
:108A88005A6B186A904704B0BDE8F0812B6853F818
:108A98002420D26A029253F824301B8EADF8043099
:108AA800E3E700BF70F8010889F80108C4F800205E
:108AB800005900012DE9F843134FDFF85480DFF81F
:108AC800549000243B6853F824301E78AEB958F807
:108AD800245039F8142040F2757301212846FFF715
:108AE800A7FF3220FCF744FF28463346324631467A
:108AF800FFF79EFF9620FCF73BFF0134042CE1D1E1
:108B0800024B1878BDE8F883C4F8002089AA002031
:108B180050F70108C2F801087320704700B5164CD9
:108B2800164D174E89B02368AB4221D09B68684622
:108B3800984702460028F6D19DF801301B0956F8DF
:108B4800230080B102236946FDF750FB9DF80130F0
:108B58000C4A1B0952F823100029E4D052F823309C
:108B680068469847DFE7084A136801331360EDE762
:108B78000A20FCF7FDFED6E734000020380000206C
:108B8800E4AA00209CAA0020DCAA002000B50F4C13
:108B98000F4D89B026462368AB4213D00D480023F9
:108BA8004FF0FF3269460068FDF7C2FC0128F2D198
:108BB800336868465B6898470028ECD10A20FCF7C0
:108BC800D7FEF5E70A20FCF7D3FEE4E734000020DF
:108BD8003800002024AB00207FB5114D2C78ECB96B
:108BE800224620213C20FDF7CDFA0E4B0E49186095
:108BF80002262346962203940294019400960B4879
:108C0800FCF752FB234603940294019400969622A3
:108C180007490848FCF748FB01232B7004B070BDD6
:108C2800E0AA002024AB0020CAF80108958B0008B0
:108C3800D2F80108258B0008014B1878704700BF4F
:108C4800E0AA002038B5094C54F82020054622B186
:108C58005C220749074804F0FDF900222021012081
:108C6800FDF790FA44F8250038BD00BFE4AA0020BB
:108C7800DAF80108F1F8010870B50D4C54F8202015
:108C880005460E4622B96C220A490B4804F0E2F95F
:108C980026B96D220749094804F0DCF9314654F831
:108CA800250000234FF0FF32BDE87040FDF740BCBF
:108CB800E4AA0020DAF8010808F901082B240208C0
:108CC80008B5034B1868FDF741FDC0F13C0008BD2D
:108CD80024AB00201028DCBF014B43F8201070475C
:108CE8009CAA002010B5044620B9C3220A490B48A3
:108CF80004F0B0F923781E2B04D9C4220649084889
:108D080004F0A8F90748002321461A460068BDE880
:108D18001040FDF76BBA00BFDAF801082B240208EF
:108D280017F9010824AB002008B5064B0021186884
:108D3800FDF7E8F9044B1B681B6903B1984700204D
:108D480008BD00BF24AB002034000020034B1B6883
:108D5800DB6803B118470120704700BF34000020CA
:108D680070B5094C2368054613B11B680020984765
:108D780035B12560236801201B68BDE8704018479D
:108D8800024B2360F6E700BF3400002038000020C3
:108D980038B50C4C4FF0FF330021054644F820301D
:108DA80007F0F2FD084B282202FB0532002352F897
:108DB8002310013102D044F8253038BD01330A2B85
:108DC800F5D138BD28AB002044AB00202DE9F74F82
:108DD8008146FDF701FF2C4B93F80080B8F1000F96
:108DE8004FD0C4B2294B53F82430581C49D00A2517
:108DF80005FB0435264E274A56F8257052F823B04D
:108E080025487B1C46F825300BEBC70A002319467A
:108E18004FF0FF320068FDF78BFBDAF80430991C3D
:108E28001BD05A1C1ED01BF83710204607F0ACFD8B
:108E3800DAF8042000259AB12B460421009548460B
:108E4800FDF772FDFCF71CFC00952B46024601213C
:108E58004846FDF769FD45460AE0002246F8252008
:108E6800154605E0204646F82530FFF791FF002516
:108E7800094800231A4619460068FDF7B7F9002D7E
:108E8800B0D003B0BDE8F08F3DAB002028AB002088
:108E980044AB002054FA010840AB00202DE9F3410F
:108EA8001E4D2C78B4BB07F075FD23461C481D4C9D
:108EB8004FF0FF31282640F8231006FB0347002215
:108EC80047F8221001320A2AFAD10133052BF2D1D0
:108ED800DFF86080144F154E00242346CDF800803B
:108EE80000224FF47A713846FDF7F6FC46F8240064
:108EF8000134052CF1D1032200210120FDF742F9AC
:108F08000B4A106020B100231A461946FDF76EF986
:108F180001232B7002B0BDE8F08100BF3CAB0020FC
:108F280028AB002044AB002035F901080CAC002028
:108F380040AB0020D58D000810B5044B1C7807F015
:108F480061FD034B01221A70204010BD3CAB00208C
:108F58003DAB0020F8B5184B0546002453F82420F3
:108F680091420AD001340A2CF8D1F8BD134B53F8BA
:108F78002500BDE8F840FFF729BF114E0023194628
:108F88004FF0FF323068FDF7D3FA0A2202FB0542A0
:108F98000C4B0027284643F82270FFF7F9FE3B46A2
:108FA8003A4639463068FDF721F9074B53F8253022
:108FB800A342DBD0F8BD00BF54FA01080CAC002076
:108FC80040AB002044AB002028AB00204160C260C9
:108FD80070470000154B70B50546002453F824204F
:108FE800914203D001340A2CF8D170BD104E0023F1
:108FF80019464FF0FF323068FDF79AFA0A2303FB4F
:1090080005440C4B4FF0FF32284643F82420FFF765
:10901800BFFE00231A4619463068FDF7E7F8064BED
:1090280053F82500BDE87040FFF7D0BE54FA010898
:1090380040AB002044AB00200CAC002008B54FF03A
:109048005F0383F31188BFF36F8FBFF34F8F064918
:10905800064804F066F90121022007F095FC012179
:10906800042007F091FCFEE77CFA01083994000817
:109078001FB50023022200920393029301934FF439
:10908800967203490348FCF70FF905B05DF804FB35
:1090980073FB0108CD91000873B5284C2578002D85
:1090A8004AD10120FDF76CF9254B264E18604FF088
:1090B800FF322B462946FDF73BFA09F0CDFF0DF0AC
:1090C800FBF9FFF789FD00F071F91F491F48204D92
:1090D80004F027F91F491D4804F023F91E491F4BC6
:1090E800086836781E491A681E4B002E08BF2946A4
:1090F8001B688DE803001C49144804F012F91B4B47
:109108001B4AB3F9003001931A4B1B491B680093A3
:109118001A4B12681B680D4804F003F911F04EFE53
:1091280001F06CF80EF068F9FFF7B8FE0AF05CF988
:109138000DF0EAFD0123237002B070BD21AC0020C0
:10914800C8F8002071010208E1FA01083994000802
:10915800DBFA010804FB0108740100206C010020FF
:10916800D2FA0108700100202BFB0108227AFF1FA8
:10917800187AFF1F107AFF1F45FB0108147AFF1F9A
:1091880038B5084B1C78FFF7D7FE05460AF052F9A8
:109198002840044001F03EF804400DF0DBFD20407B
:1091A80038BD00BF21AC002008B5054800231A4689
:1091B80019460068FDF71AF8BDE8084009F086BDB1
:1091C800C8F8002038B507F0E5FB0121002007F0BA
:1091D800DBFBFFF761FF00F0A5F801F04FF802F0A4
:1091E80097F80DF0CFFD0DF021F80DF087FA0AF091
:1091F80041FEFFF7C5FF044611F08CFE044000F065
:10920800ADF8E4B2044001F0A3F8044002F0DEF83F
:1092180004400DF0D5FD04400DF02EF804400DF08B
:109228008FFA044009F03CFD1F4DE8B1E4B1012478
:109238002C70FFF7B9FF06200DF024F81B49042015
:10924800FFF788FE1A492046FFF784FEFDF7D8FD90
:1092580018490246184804F064F800F0E3FF4FF09C
:10926800FF30FCF785FBFAE700232B70FFF788FF38
:1092780090B10F4C21460420FFF76CFE4FF4FA60C2
:10928800FCF776FB2B78002BF4D00C490A4804F045
:1092980048F8FFF789FFD9E707F07CFB0121042094
:1092A80007F072FBD2E700BF22AC002044F90108A6
:1092B800DCF901088EFB0108399400087AFB0108E3
:1092C80010B50B4C23787BB10A4C002319464FF09C
:1092D800FF322068FDF72CF9002320681A4619464A
:1092E800BDE81040FCF782BF0220FCF741FBE9E72C
:1092F80021AC0020C8F80020014B1870704700BF4F
:1093080020AC002008B5FCF7BBF9054A1368C31A5E
:10931800502B02D91060FEF7D9FA30BF08BD00BF44
:1093280024AC002010B50C4C23789BB909F014FA32
:109338000AF01AFB0AF096FBFFF712FD00F0E2F8BC
:109348000CF0A2FE00F02EFE00F00EF901F0E0FA9B
:109358000123237010BD00BF28AC002038B50B4B8B
:109368001C780AF0CBFA0546FFF766FC2840044053
:1093780000F0D8F804400CF097FE044000F034F8F0
:10938800044000F081F9204038BD00BF28AC00201F
:1093980010B5054C2046FFF7A5FC01284FF0000347
:1093A8000CBF2370184610BDCCF8002038B50B4D03
:1093B8002C788CB90A4B0322214601201C705C7062
:1093C800FCF7E0FE074A106020B1234622462146FA
:1093D800FCF70CFF01232B7038BD00BF29AC00201F
:1093E800CCF800202CAC0020014B1878704700BF47
:1093F80029AC002037B50C4C054601AA002120688D
:10940800FDF75CF901280CD1084A206813781D2B58
:109418009EBFD11801338D7001A998BF1370FDF755
:1094280035F8284603B030BD2CAC0020CCF800201D
:10943800F8B5214A214B12785B680646002A38D0D5
:10944800C3F308031BB1BDE8F840FFF7D3BF1C4DB9
:109458004FF0FF3219462868FDF76AF8012826D12F
:10946800184C23781D2B13D9FFF72AFC01280CD19F
:10947800217815480023CA18002A06DDC718224497
:109488003F799770013B5A1DF5D1FFF781FF08E03E
:10949800E2180133DBB20A2E96702370E4D01E2B3B
:1094A800E2D000231A4619462868FCF79FFEF0B25E
:1094B800F8BD1046F8BD00BF29AC002000ED00E063
:1094C8002CAC0020CCF80020A8FB010838B5437864
:1094D80013F0030305460FD0012B00D038BD044616
:1094E8001E2204F8022B0021204615F020FC044916
:1094F800204615F024FC2846BDE83840FFF7F2BBAB
:10950800ADFB010810B5054C23782BB904490F2091
:10951800FFF7E0FB0123237010BD00BF30AC002033
:10952800D5940008014B1878704700BF30AC002074
:1095380070B50B4B19680B4B00221C680C251346A1
:109548008B4203DB4FF0FF33184670BD05FB03F673
:10955800A657002E02DB8242F6D001320133EFE734
:1095680060AC002054AC00202DE9F04F384B1D783A
:1095780089B09B46002D2BD1364A374C374B226099
:109588009B1A374A3749384EDFF8F89035609B10F8
:1095980053430B602F46059109F1070A059B18688C
:1095A800874218DB314B2468196800220C26824256
:1095B80044DB05B11960002301240393029301934E
:1095C800009496222A492B48FBF76EFE8BF8004040
:1095D80009B0BDE8F08F3368C9F802300C2303FBEB
:1095E80007F8226802EB080112F8082089F806201B
:1095F800486808B3FBF76CFD182804D962221E4995
:109608001E4803F027FD226802EB080307935968F8
:1096180006910846FBF75CFD06990246504615F090
:1096280061FB079B5868FBF753FD411D144803F085
:1096380085FE01373060B1E70521F7E706FB02F741
:109648000132E757002FA4BF01310125AFE700BF62
:1096580031AC0020B437020854AC0020CC3D0208DD
:10966800ABAAAAAA60AC00205CAC002058AC0020D1
:10967800FAFB0108B9970008C0FB0108D8FB0108EC
:1096880034AC002032AC0020014B1878704700BF82
:1096980031AC00202DE9F843034618B101282CD03D
:1096A800BDE8F883384C394F394A3A4EE178D7F853
:1096B800009015684FF00C0E0246B446AA4207DB2C
:1096C800202363700023A370012323702E4857E0E2
:1096D80099F8000010F0800F0EFB02F807D0C007C1
:1096E80009D5D9F80460013209F10C09E6E7994275
:1096F80010D00133F7E76646F5E723488370264B19
:109708001B68C370254B202242701B6843600622E9
:10971800027035E0202363700023E170A37099F88C
:10972800003023713046FBF7D3FC0546D9F8040016
:10973800FBF7CEFC28440530C0B21E28207004D99F
:10974800D6221749174803F085FC3046FBF7C0FCC2
:109758003146421C1448154D15F0C4FA3046FBF743
:10976800B7FC3B6898440446D8F804603046FBF7D9
:10977800AFFC0434421C3146281915F0B3FAA81E70
:10978800BDE8F843FFF7AEBA32AC002054AC002075
:1097980060AC00200A28020858AC00205CAC00200D
:1097A800C0FB010800FC010837AC002034AC0020E5
:1097B8002DE9F74F0220FFF745FA7B4CDFF8F891C7
:1097C80079490220FFF758FA6678A57816F003065B
:1097D80003D12846FFF75EFFF2E7012E32D1284673
:1097E800FFF7A6FE002806DAFF23A3700223E57020
:1097F8002371032311E00C2358436C4B1B681A5C3C
:10980800191802F00302022A8B680FD0032A12D01B
:10981800012A07D01B78E370022323702046FFF744
:1098280061FACDE71B88A4F80330E2E71B68C4F8A7
:1098380003300523F1E75E491A680A605A684A60EE
:109848000923EAE7022E2AD12846FFF771FE0028ED
:1098580004DAFF23A370E5702671CAE70C23584386
:10986800524B1B681A181B5C5906A9D403F0030352
:10987800022B926809D0032B0BD0012B15BFE3787C
:10988800B4F8033013701380C8E7D4F803301360BA
:10989800C4E7474B19685B6882E80A00BEE7002DF9
:1098A8008ED12B46E218927802B9013501331E2B6E
:1098B800F8D1012D74DD3E48FBF70AFC061D26444D
:1098C80005463046FBF704FC3A4B00901B680193B1
:1098D800364B1F68CA464FF0000B019B9B4515DBB2
:1098E80002253348FBF7F4FB07463046FBF7F0FB4D
:1098F800274407442E487D71FBF7EAFB05463046AE
:10990800FBF7E6FB28440430207087E797F80080CF
:1099180018F0800F08D018F0010F32D0D7F804A043
:109928000BF1010B0C37D8E731467868FBF7C6FB1B
:109938000028F5D11E495046FBF7C0FB0028EFD19F
:10994800009B2B449A46E3185B79434526D113F0D4
:10995800400521D103F003030AF10402022B0AF1A6
:10996800060A04EB0A00B9680DD0032B0FD0012BAF
:1099780017BFA31834F80A309B780B7008BF0B8008
:10998800AFE7CA46CCE754F80A300B60A9E7D0E93C
:109998000023C1E90023A4E70D25A2E71625A0E7C7
:1099A80003B0BDE8F08F00BF32AC002054AC0020FB
:1099B80035AC002060AC00200A2802081C4B2DE9B9
:1099C800F34100250C211F4601FB05F2D4588442BF
:1099D80029D00135102DF7D1022002B0BDE8F08161
:1099E8002268A3601446002CFAD10C2606FB0576E3
:1099F800706888B14FF0FF38234622460321CDF81E
:109A08000080FCF791FFCDF800802346224605210F
:109A18007068FCF789FF74600C235D434FF0FF33D7
:109A28007B510020D9E713449C680023DBE700BF83
:109A380068AC00200D4B37B500220C2404FB02F162
:109A4800CD58854205D00132102AF7D1022003B043
:109A580030BD58184FF0FF33009300231A460321F6
:109A68004068FCF761FF0020F1E700BF68AC002008
:109A780038B5114B114D1B7883B900234FF0FF32D5
:109A8800EA500C33C02BFBD100230D481946C218ED
:109A98000C33B3F5C06F9160F9D138BD0024285953
:109AA800431C04D0FFF7C6FF2859FFF787FF0C3483
:109AB800C02CF4D1E1E700BF64AC002068AC002002
:109AC8002CAD002008B5FDF787F8BDE80840014631
